:020000040800F2
:10000000005000203D350008793000087F3000089E
:1000100000000000000000000000000000000000E0
:100020000000000000000000000000008530000813
:1000300000000000000000008F3000089930000828
:100040008D3500088D3500088D3500088D35000888
:100050008D3500088D3500088D3500088D35000878
:100060008D3500088D3500088D3500088D35000868
:100070008D3500088D3500088D3500088D35000858
:100080008D350008A9300008C130000800000000CC
:100090008D3500088D3500088D3500088D35000838
:1000A0008D3500088D3500088D3500088D35000828
:1000B0008D3500088D3500088D3500088D35000818
:1000C00010B5064C2378002B07D1054B002B02D02E
:1000D000044800E000BF0123237010BDE0010020B0
:1000E000000000006C950008044B10B5002B03D0F5
:1000F0000349044800E000BF10BDC04600000000F6
:10010000E40100206C9500080023C25C0133002A42
:10011000FBD1581E7047000002B4714649084900DF
:10012000095C49008E4402BC7047C04603B4714666
:10013000490840004900095E49008E4403BC7047ED
:10014000002243088B4274D303098B425FD3030A16
:100150008B4244D3030B8B4228D3030C8B420DD329
:10016000FF22090212BA030C8B4202D312120902B7
:1001700065D0030B8B4219D300E0090AC30B8B42F5
:1001800001D3CB03C01A5241830B8B4201D38B03A3
:10019000C01A5241430B8B4201D34B03C01A524148
:1001A000030B8B4201D30B03C01A5241C30A8B428B
:1001B00001D3CB02C01A5241830A8B4201D38B0276
:1001C000C01A5241430A8B4201D34B02C01A52411A
:1001D000030A8B4201D30B02C01A5241CDD2C3098C
:1001E0008B4201D3CB01C01A524183098B4201D308
:1001F0008B01C01A524143098B4201D34B01C01AF3
:10020000524103098B4201D30B01C01A5241C3086A
:100210008B4201D3CB00C01A524183088B4201D3D9
:100220008B00C01A524143088B4201D34B00C01AC5
:100230005241411A00D20146524110467047FFE731
:1002400001B5002000F0F0F802BDC0460029F7D04B
:1002500076E7704703460B437FD4002243088B4266
:1002600074D303098B425FD3030A8B4244D3030B3D
:100270008B4228D3030C8B420DD3FF22090212BA02
:10028000030C8B4202D31212090265D0030B8B427E
:1002900019D300E0090AC30B8B4201D3CB03C01A68
:1002A0005241830B8B4201D38B03C01A5241430B43
:1002B0008B4201D34B03C01A5241030B8B4201D333
:1002C0000B03C01A5241C30A8B4201D3CB02C01A9E
:1002D0005241830A8B4201D38B02C01A5241430A16
:1002E0008B4201D34B02C01A5241030A8B4201D305
:1002F0000B02C01A5241CDD2C3098B4201D3CB01AC
:10030000C01A524183098B4201D38B01C01A52415A
:1003100043098B4201D34B01C01A524103098B425E
:1003200001D30B01C01A5241C3088B4201D3CB0049
:10033000C01A524183088B4201D38B00C01A52412C
:1003400043088B4201D34B00C01A5241411A00D2DC
:1003500001465241104670475DE0CA0F00D0494245
:10036000031000D34042534000229C4603098B42B5
:100370002DD3030A8B4212D3FC22890112BA030A3D
:100380008B420CD3890192118B4208D389019211BF
:100390008B4204D389013AD0921100E08909C30944
:1003A0008B4201D3CB01C01A524183098B4201D346
:1003B0008B01C01A524143098B4201D34B01C01A31
:1003C000524103098B4201D30B01C01A5241C308A9
:1003D0008B4201D3CB00C01A524183088B4201D318
:1003E0008B00C01A5241D9D243088B4201D34B0033
:1003F000C01A5241411A00D20146634652415B1075
:10040000104601D34042002B00D549427047634655
:100410005B1000D3404201B5002000F005F802BD9A
:100420000029F8D016E770477047C0468446101C74
:1004300062468C46191C634600E0C0461FB501F0B9
:1004400065F8002801D40021C8421FBD10B500F096
:10045000AFFF4042013010BD10B501F057F8002841
:1004600001DB002010BD012010BDC04610B501F019
:100470004DF8002801DD002010BD012010BDC04650
:1004800010B500F0D1FF002801DC002010BD0120D4
:1004900010BDC04610B500F0C7FF002801DA0020EB
:1004A00010BD012010BDC046002B11D1002A0FD174
:1004B000002900D1002802D00021C943081C07B43C
:1004C000024802A14018029003BDC0465DFFFFFF35
:1004D00003B4684601B5029800F04CF8019B9E46B3
:1004E00002B00CBC7047C046F0B515042D0C0F00CF
:1004F00001002E00C64684460004140C000C090CB2
:1005000046434D43604361434019340C241800B501
:10051000A54203D98020400280464144250C6D1835
:10052000614659437A43300449192404000C2018C9
:10053000891880BCB846F0BD70B500220C4B040091
:100540000D00FFF7A7FF002804D12000290001F0CB
:1005500069FE70BD064B00222000290001F0B2FAAE
:1005600001F060FE80231B069C466044F1E7C04614
:100570000000E041F0B557464E464546DE46E0B540
:1005800004000D009246994683B08B4230D82DD09E
:100590004946504601F0C0FF29000600200001F046
:1005A000BBFF331A9846203B9B4633D45A465346EA
:1005B000934042461F00534693401E00AF423AD834
:1005C000AF4200D178E05B46A41BBD41002B00DAAE
:1005D00075E0002200230092019301235A469340C4
:1005E0000193012342469340009328E08242CFD9F1
:1005F00000220023009201930C9B002B01D01C6071
:100600005D600098019903B0F0BCBB46B246A946B4
:10061000A046F0BD424620239B1A5246DA4041468E
:1006200013004A468A40170042461F4353469340F0
:100630001E00AF42C4D9002200230092019343461A
:10064000002BD9D0FB0772081A4346467B080EE000
:10065000AB4201D1A2420CD8A41A9D410120241919
:100660006D410021013E24184D41002E06D0AB42C1
:10067000EED9013E24196D41002EF8D10098019960
:100680005B4600196941002B24DB2B005A46444687
:10069000D3402A00E2401C005B461500002B2ADBF9
:1006A00026009E40330026004746BE403200801A96
:1006B0009941009001919FE7A342BCD883E742464D
:1006C000202300219B1A0022009101920122DA408E
:1006D000019286E7424620239B1A2A0046469A400A
:1006E0002300F340444613432A00E2401C005B46CB
:1006F0001500002BD4DA42462F0020232600974015
:100700009B1ADE403B003343CDE7C046F0B54F4671
:10071000D64646460D0001001800C0B517002B0351
:100720005A0A4B0F1343CA00914602036E00410060
:10073000520AEC0F7D0F1543760D490DC00F82460E
:10074000AC46FF00721A844200D198E0002A00DC17
:1007500081E0002900D1B6E0C9498E4200D172E1A2
:1007600080212800090408438446382A00DD5EE120
:100770001F2A00DDEEE1202039006546801A8740FF
:10078000D14085400D4339004F1EB9416746D740DF
:100790002943DB1B4A46551AA945894149425B1A40
:1007A000984643461B0200D4CCE043465B025B0AFA
:1007B00098464346002B00D12CE1404601F08EFEC6
:1007C00001000839202228004346521A8B40D040AD
:1007D0008D4003438E4200DD17E18E1B721C1F2AE1
:1007E00000DDA7E1202118002E00891A8D408840E5
:1007F000D640D340691E8D413043984600260543BC
:100800006B0709D00F232B40042B05D02B1DAB42C7
:10081000AD416D42A8441D0043461B0200D494E044
:10082000974B721C9A4200D19DE04146954BED08D2
:1008300019400B00520549075B0229431B0B520D5F
:1008400012051343E407234308001900E0BCBA462D
:10085000B146A846F0BD002A43D08A1B002E00D026
:100860002AE14C461C4300D1D1E1541E012A00D19B
:100870001FE2834DAA4200D172E2220023E1002A46
:1008800000DC98E0002942D07D498E4200D1DAE0B8
:1008900080212800090408438446382A00DD29E124
:1008A0001F2A00DC87E1110065462039CD40202A4F
:1008B00004D040206146821A91400F4339004F1EF8
:1008C000B9410D431BE12900394300D1B5E0511E68
:1008D000012A00D1ABE16A48824200D1B2E10A00AC
:1008E00043E76949751C0D4200D0CFE0002E00D0CF
:1008F00093E14946194300D1D1E16146394300D023
:10090000E3E149465807C9080143DB0826E029000E
:10091000394300D191E0511E012A05D05848824246
:1009200000D18FE10A00B8E73D004D444D458941B3
:100930006344984649428844434602261B0200D538
:10094000EBE0013E6B0700D05CE74346E9085A073D
:1009500011433200DB084A48824221D01B03520572
:100960001B0B520D6CE70023002169E72A003A4374
:1009700069D04A465807D108DA0880231B03084388
:100980001A4207D02900ED081D4203D12A00FF08B2
:1009900048073843430FC1005B07C90819431300D8
:1009A0000A001A4300D113E28022120313431B03EF
:1009B000334A1B0B44E7002A4BD08A1B002E00D180
:1009C000E7E02F48814200D195E1802000040343F5
:1009D000382A00DD43E11F2A00DDDBE120201D0075
:1009E0004E46801A8540D64035434E4686403000FC
:1009F000D340461EB0419C440543ED19BD429B4186
:100A00005B42634498460E007FE01E4A761A13400C
:100A10009846F5E6280001F061FD010018311F2914
:100A200000DCCFE62B00083883400025D2E6624682
:100A30003A4311004F1EB941ACE649465807C90870
:100A40000143DB0887E749465A07C9081143DB0819
:100A5000A6E70D49701C084200D0BBE0002E00D074
:100A600014E14946194300D175E12900394300D00A
:100A70007EE149465807C9080143DB086EE7C046D6
:100A8000FF070000FFFF7FFFFE0700004946CD1B68
:100A90006146581AA94589414942884601004046A5
:100AA000091A8846090200D5A6E04146294300D02C
:100AB0007FE60023002451E7C74CA14200D1C7E0E4
:100AC000802424042343382A54DC1F2A00DDCCE090
:100AD00020244846A41A1D004E46A040D640A540FA
:100AE0000400D34062463543661EB441D31A9C4687
:100AF000254344E062463A4315006F1EBD414D4414
:100B00004D45894149428846984443461B0200D4DA
:100B100018E7B14B01369E4249D04246AF4B012106
:100B20001A4013006A080D401543D9075B08984620
:100B30000D4365E618001F3EF040202A03D04021F7
:100B40008A1A93401D43691E8D4100230026984652
:100B50000543F7E6110065462039CD40202A04D030
:100B600040206146821A91400F4339004F1EB9411F
:100B700029430FE64A4613431D006B1E9D417D1B12
:100B8000AF429B4162465B42D31A984654460E00E0
:100B900007E64846184300D1B3E0501E012A00D1B1
:100BA0000DE18D4DAA4200D1A5E0020010E7320010
:100BB0000023002144E620213800891A65468F4031
:100BC0008D40D040791E8F4105433D436746D74055
:100BD000DB1994E7804A904200D1ECE039004944A7
:100BE00049459241634452429B18DD0749085B081E
:100BF000984606000D43A5E64A46BD1AAF42894114
:100C000062464942D31A5B1A98465446D1E56C07AE
:100C1000F9082143EB0804009DE64A461A4375D1C2
:100C20006146394314D1802300241B03BCE64A46A5
:100C3000D51BA9458941624649429B1A5B1A9846D1
:100C40000126AEE54A46D1085A071143DB08A7E65C
:100C50006346F9085A0754461143DB08A0E64A46A2
:100C600013431D006B1E9D41C7E614001E00203C6F
:100C7000E640202A05D04024A21A93404A461A434F
:100C800091464D466B1E9D41354378E74A461A43CF
:100C900000D06BE66B07F9081943EB0880E6614664
:100CA000394354D06346F9085C072143DB0804004C
:100CB00054E64A46BD1AAF42894162464942D31AB8
:100CC0005B1A9846040001266BE54A46D51BA945E8
:100CD0008941624649429A1A521A9046120232D506
:100CE0004A46BD1AAF42894162464942D31A5B1A4D
:100CF0009846040084E56346F9085A071143DB0867
:100D00004EE6F90868070143EB0824E662463A43D9
:100D100000D198E64A46D1085A071143DA088023E1
:100D20001B031A4208D06046C5081D4204D1544630
:100D30002A00F908430719434B0FC9005B07C9088C
:100D4000194313002CE64146294300D0FAE500235D
:100D50000A00002402E66B07F9081943EB08FDE5D9
:100D60006346F9085B07194363460400DB0817E68E
:100D70003D004D4463444D4589419846494288446D
:100D800043461B0200D4DDE54246144B01261A40BF
:100D90009046D7E510001E002038C640202A05D016
:100DA0004020821A93404A461A4391464D466B1E94
:100DB0009D41354321E602000023002140E54A46DB
:100DC000D519BD4289416344984649428844B3E5F8
:100DD0000021014A0B0033E5FF070000FFFF7FFF02
:100DE000F0B557464E464546DE46E0B5814605001D
:100DF0000C03480092461F0085B0240B400DCE0F17
:100E0000002859D0874B984200D198E06B0FE4003E
:100E10001C4380231B0423439846834BED009B46D1
:100E200000239946834400933C037B005046240BE7
:100E30005B0DFF0F002B67D07A4A934218D07A4996
:100E4000420F8C46E4005946144380226344120446
:100E5000CB1A14439B46C200002033007B409A46C5
:100E60004B460F2B00D9EFE070499B00CB589F46B3
:100E70006F4B52469C462243E344002A00D095E043
:100E8000494602231943894600240220E5E700234E
:100E90000024002552461B052343D2071343280094
:100EA000190005B0F0BCBB46B246A946A046F0BD4D
:100EB000002400255B4BEDE74B462343984600D1C9
:100EC00089E0002C00D1E0E1200001F007FB0100E7
:100ED00002000B391D235B1A49461000D94008381F
:100EE00084400B004D4623439846854051483C03BF
:100EF000831A9B460023994600937B005046240B9F
:100F00005B0DFF0F002B97D15246224355D0002C8A
:100F100000D1CAE1200001F0E1FA02000B3A1D23E2
:100F200001009B1A52460839DA408C40144352465D
:100F30008A40414B58449B46834400208DE74B46F2
:100F40002343984640D108239946063B0025834613
:100F5000009369E7B246009B022BA9D0032B00D176
:100F600011E2012B93D0354A5A44002A00DC3CE1BF
:100F70006B0700D0A7E1ED084346DB0106D54246EA
:100F80002F4B1A4090468022D2005A442D4B9A4251
:100F90008EDC4346520558075C020543240B530D73
:100FA00078E7BA46A04615000090D4E74A460323E6
:100FB0001A439146032052464FE7494601231943FD
:100FC00089460024012048E70C239946093BA046A6
:100FD0008346009328E70423994600239B46013368
:100FE0000025009320E7002380249A4600250D4B1E
:100FF00024034FE7802341461B03194208D01C42BB
:1010000006D11C432403BA461500064B240B41E7C6
:101010008024434624031C432403B246014B240B83
:1010200038E7C046FF07000001FCFFFF28960008D4
:1010300001F8FFFF0DFCFFFFF3030000FF030000BA
:10104000FFFFFFFEFE070000444500D216E100D17D
:1010500011E101235B429C462E0040460025E344FB
:101060002302140E1C431B0C994623041F0C12026E
:10107000494600920197FFF7E9F802007A430B0412
:10108000310C804619438A420BD901235B429C46AE
:101090000919E0448C4204D88A4202D9831E98463A
:1010A0000919881A4946FFF7D1F809048C4631041A
:1010B0006646019A090C4243030031438A4204D92F
:1010C0000919013B8C4200D811E1891A4246009E61
:1010D00012041A43330C1F00100C904602931304A1
:1010E0003204160C32001B0C5A4303967B434643D2
:1010F0007843170CBC469B1963449E4203D9802653
:101100007602B44660441E0C301816041B04360CDC
:101110009E19814200D29CE000D197E0AE1B091AD3
:10112000B54280414042081A844200D111E149464B
:10113000FFF78CF8019A0B044243310C0500194368
:101140008A4207D90919013D8C4203D88A4201D944
:10115000851E0919881A4946FFF778F809048C4654
:1011600031046646019A090C4243030031438A4226
:1011700007D90919013B8C4203D88A4201D9831E41
:101180000919039E891A32002D041D43029F2B0466
:101190001B0C5A437B439C46280C4643130CB44417
:1011A000634478439E4203D980267602B446604465
:1011B0001E0C12041B04120C30189B18814206D31B
:1011C00002D001231D43CEE6002B00D1CBE66118EF
:1011D0006E1EA14200D2A4E0814200D2C9E000D13B
:1011E000D9E03500EDE701256D420121891A382942
:1011F00000DD4CE61F2900DC7FE01F235B429A1ACA
:101200004346D340202904D04446654A5A4494407A
:1012100025436A1E954107222B43150000241D40DB
:101220001A4200D1A1E00F2200241A40042A00D162
:1012300098E01A1D9A429B415B42E4181300220277
:1012400000D48FE001230024002523E6B54200D31B
:1012500064E743465A1E009B9C4665441F009D421E
:101260009B415B421B19C9188C423AD2884263D811
:1012700060D0904652E7AA4200D9EAE64346DE072C
:1012800058086B081E43ED07EAE6484601F026F9C8
:1012900001000200153120321C2900DC1AE64B4601
:1012A000083883400025984620E601F017F903002E
:1012B0001A00153220301C2A00DC30E65446083B68
:1012C00000229C4035E60F232B40042B00D152E630
:1012D00005235B42AB429B4104355B42ED089844D9
:1012E0004AE68C42C5D1AF42C0D9904616E78A4241
:1012F00000D8EAE6831E0919E7E62A4A28005A447C
:10130000434695409340C8406A1E95414446034376
:101310002B43CC405A0792D00F221A40042A88D17E
:101320008DE73500814200D04BE7009A934200D010
:1013300047E718E6AE429CD902235B429C46009BDD
:10134000E0449C4665449D429B415B421B19C91881
:10135000E4E6154A5A44002A00DC44E7012300254C
:10136000984409E665076402240BDB081D4300234B
:1013700090E5009E023D7200B242BF417F423C199F
:1013800009190092CEE78024434624031C4324031A
:10139000064B240B7EE5009A9A42EAD33500C4E757
:1013A0003E0400001E040000FF030000FF070000D1
:1013B000F0B54F464646D646944691461A03120B60
:1013C000184DC0B54C000F0392465A0006008046E7
:1013D0003F0B0120640DC90F520DDB0FAC420AD048
:1013E000AA4203D0944201D157450DD0E0BCBA4681
:1013F000B146A846F0BD3D003543F7D1A242F5D134
:10140000524665462A43F1D10120C845EED19942A2
:1014100006D0002CEAD13E433000461EB041E5E73D
:101420000020E3E7FF070000F0B54E46454657466B
:10143000DE4604001800E0B516001B031B0B324DFE
:101440000F034A0099464300A446B0463F0B520D95
:10145000C90F5B0DC00FAA4229D0AB4218D0002A99
:101460002AD13C43A34665426541002B02D14C463C
:10147000264327D0002D15D1814228D002200139E2
:1014800008400138F0BCBB46B246A946A046F0BDB4
:101490004D462E432FD1002AEED13C436542654193
:1014A000002DE9D00028EDD101204042EAE73D00BF
:1014B000254320D19342EBD0002BDDD14C4626436F
:1014C000DAD1DBE75B460020002BDBD0D6E79A427F
:1014D0000ADCE7DB4F45D1D810D000204F45D1D2F0
:1014E0000029E1D00800CDE74342584102234042A1
:1014F00018400138C6E702204042C3E7C445BDD8C2
:101500000020C445BED2EBE7FF070000F0B54E4611
:1015100045465746DE4604001800E0B516001B039A
:101520001B0B314D0F034A0099464300A446B046B9
:101530003F0B520DC90F5B0DC00FAA4211D0AB4239
:1015400014D0002A2FD13C43A34665426541002BAD
:1015500014D14C46264311D15B460020002B17D0F6
:1015600010E03D00254312D193421CD14D462E433D
:101570000DD1002A04D13C4365426541002D0DD1B7
:10158000814216D0022001390840013800E00220D3
:10159000F0BCBB46B246A946A046F0BD0028F7D134
:1015A00001204042F4E7002BEAD14C462643E7D124
:1015B000E8E79A4206DD4342584102234042184080
:1015C0000138E5E79A42E9DB4F45DBD806D0002039
:1015D0004F45DDD20029E3D00800D9E7C445D1D872
:1015E0000020C445D4D2F5E7FF070000F0B5574608
:1015F0004E464546DE46E0B598460C034B000600D5
:10160000924687B0240B5B0DCF0F002B6CD0DD4AC8
:10161000934200D186E0420FE4001443802212047A
:101620001443D94AC5009446634400930023994665
:101630009B46434642461E03D20F5B0050469046EF
:10164000360B5B0D00D178E0CE4A93421DD0CE49D7
:10165000420F8C4600996344F6008C461643802264
:101660009C44120463461643C20000200093009974
:10167000434601318C4649467B4001930F2900D9EE
:101680007EE0C24B890059588F465246009B324338
:1016900000D056E1BB4900268C466344494600937E
:1016A0000223194389460220E1E7434601933400AF
:1016B000150083465B46022B5ED0032B00D1F3E17D
:1016C000012B00D018E1002200240025019B120507
:1016D0002243DB071A432800110007B0F0BCBB46C9
:1016E000B246A946A046F0BD2500054300D141E120
:1016F000002C00D1ADE1200000F0F0FE010002005E
:101700000B391D2310005B1A310035000838844066
:10171000D94085400C439E48831A00930023994684
:101720009B4686E70500254300D01CE10822009374
:101730000223002491469B467BE75246324300D168
:101740000AE1002E00D176E1300000F0C7FE020071
:101750000B3A1D2301009B1A52460839DA408E408D
:10176000164352468A40009B8949181A03008C464A
:101770006344002000937AE700240025814AA5E70E
:101780002F0C2D042D0C2B00110C1204120C5343A2
:101790009846130028007B439946484348448346B3
:1017A00040460B00000C824658467B43504402934F
:1017B000814506D99A4680235B029946CA4453461E
:1017C0000293030C9B4643461B0400041B0C9846E3
:1017D000030043440493330C99462B003604360C23
:1017E0007343984633007B439A464B465D435F43C1
:1017F00043465544180C4019824503D980235B02A7
:101800009A465744050CEB19059343461D042D0CCD
:1018100000044019250C2404240C270057436A4374
:1018200090462A003B0C9A464A4361434144514446
:101830008344884503D980235B02984642443F0491
:101840000B0C3F0C0904C919270098464B467743F7
:101850005C436E435D433B0C9946A4194C4442449F
:101860000395A64204D980235B029846454403951C
:10187000029B3F045B441E00834280412304984640
:10188000059B3F0C4744984676188E428941474451
:1018900040423D18A846934649428A46C3449F4267
:1018A000BF4180458041039BDA44984653464042FD
:1018B0007F420743240C934592418A4589413F1951
:1018C000DC0D049B75021D43681E85415346524240
:1018D00049420A43BF184744F60D7F0235435A0276
:1018E0003C431543FB0100D4C1E001216A080D40CF
:1018F0001543E2071543640826496144002956DD73
:101900006B0709D00F222A40042A05D02A1DAA42BB
:10191000AD416D4264191500E30104D580211E4AD2
:10192000C900144061441D4A914200DD24E762076A
:10193000ED08640249051543240B4A0DC6E60197DC
:10194000B8E6104A0320944663444A4600930323B2
:101950001A43914652468AE649460123194389466D
:101960000026012083E60C22009303230500914604
:101970009B465EE60423994600230093013300242E
:101980009B4656E6FF07000001FCFFFF6896000833
:101990000DFCFFFFFF030000FFFFFFFEFE0700003E
:1019A000002380240025444A019324038EE601206D
:1019B000401A382800DD86E61F285BDD1F22230041
:1019C0005242511ACB401900202803D03B4A6244AE
:1019D000944025436A1E95412A000A4307210D00C1
:1019E0000024154011425BD00F210024114004292E
:1019F00053D0111D914292415242A4180A00230271
:101A00004BD501220024002560E680231B031C42E5
:101A100009D01E4207D133431C0343461500240B53
:101A2000254A019352E68022120314432403224ADA
:101A3000240B01974AE600F051FD03001A0015320D
:101A400020301C2A00DC84E65646083B00229E40DB
:101A500089E600F043FD01000200153120321C2907
:101A600000DC4EE6340008380025844053E6009B35
:101A70009C4641E71249220061442E008D408A4075
:101A8000C640691E8D4132432A43C4405307B6D035
:101A90000F2111400429ACD1B1E765076402240B82
:101AA000D2081543002211E68022120314432403B6
:101AB000014A240B0AE6C046FF0700003E0400006E
:101AC0001E040000F8B557464E464546DE46040063
:101AD000E0B51F0010000B03620F4E00CD0F5B0A34
:101AE00039031343490AE200440F2143C24C914693
:101AF0009246C0007A008046760D520DFF0FA2423A
:101B000000D1B4E001246740BB46BD4200D188E06B
:101B1000B41AA446002C00DCB2E0002A00D1C5E0D3
:101B2000B54A964200D18BE28022120411436246EC
:101B3000382A00DDA1E11F2A00DD16E220270C0073
:101B4000BF1ABC400200A0466446B840E24044468A
:101B500014430200501E82416046C14022435B1A7A
:101B600049468C1AA145924152429B1A98464346D7
:101B70001B0200D417E143465B025B0A98464346CA
:101B8000002B00D16CE1404600F0A8FC0200083AAE
:101B9000202120004346891A9340C84094400343C3
:101BA000964200DD57E1961B711C1F2900DDCBE139
:101BB000202218002600521A94409040CE40CB407C
:101BC000621E94413043984600260443630709D0BF
:101BD0000F232340042B05D0231DA342A4416442BC
:101BE000A0441C0043461B0200D4DFE0824B0136B8
:101BF0009E4200D1FBE04246804BE4081A401300AD
:101C0000710552075B0222431B0B490D0905ED07C5
:101C1000194329431000F0BCBB46B246A946A04672
:101C2000F8BDB41AA446002C58DD002A00D19EE06D
:101C3000714A964200D13BE1802212041143624670
:101C4000382A00DDC1E01F2A00DCBBE10C00203A8D
:101C5000D44022006446202C04D040273F1BB940CA
:101C6000084380464446611E8C411443B1E00C0099
:101C700004432AD0BB46BD422DD0614CA446B44497
:101C80006446002C5CD0941BA446002E00D015E1C5
:101C90004D461D4300D1C3E1651E012C00D10CE26D
:101CA000554EB44200D1F8E1AC460EE10A000243C1
:101CB00000D136E12200013A012C00D1C6E14E4CA0
:101CC000A44500D1F4E0944631E701246740BB46C7
:101CD000BD4200D01CE74A4CA446B4446446002CE4
:101CE00000D1CFE0941BA446002E00D15CE1424E0F
:101CF000B24200D1ECE18026360433436446382CEE
:101D000000DDB3E11F2C00DD38E22026361B1C006D
:101D1000B4404F46A0466446E74044463C434F46E5
:101D2000B7403E00771EBE4134436646F340C918B3
:101D3000241884429B415B429846160088444EE03A
:101D4000304A741C144200D0D6E04A461A43002E92
:101D500000D05BE1002A00D1A5E10A00024300D0D7
:101D6000BBE14A465907D2080A43DB0827E00A00CC
:101D7000024300D174E12200013A012C05D01E4C2F
:101D8000A44500D194E0944659E74844484592411F
:101D90005B189846040052429044434602261B02B8
:101DA00000D5C4E0013E630700D011E74346B446C6
:101DB0005907E2080A43DB080F498C4540D06146C9
:101DC0001B0349051B0B490D20E701430C00611E55
:101DD0008C414C444C459241524290469844434673
:101DE0001B02E0D5044B01369E4200D09FE031003B
:101DF000002300220AE7C046FF070000FFFF7FFF25
:101E000001F8FFFFFE070000002A00D160E10A0090
:101E100002434DD04A465C07D20822438024DB08A7
:101E20002403234207D0CE08264204D15D46330066
:101E3000C20849070A43510FD200D20849070A4392
:101E40001100194300D1C8E1802109030B431B0392
:101E5000D5491B0BDAE6D549B61A0B409846B5E6CC
:101E6000200000F03BFB020018321F2A00DC8FE646
:101E7000230008388340002492E608430200501EE5
:101E800082416DE6CA4C721C224200D0ADE04A4647
:101E90001A43002EB8D1002A00D158E10A000243AB
:101EA00000D059E14A465907D2080A43DB0886E7C1
:101EB0004A465907D2080A43DB08C1E7BA4DAA428D
:101EC00000D11EE180252D042B436446382C5DDCB7
:101ED0001F2C00DDD0E0202567462D1B4E461C0040
:101EE000FE40AC4034434E46AE403500FB406E1ED3
:101EF000B541C91A2C434EE04A46141AA1459241F5
:101F0000524290465F1A3A004746D21B9046120250
:101F100000D58BE04246224300D030E60023002566
:101F20004DE74A465907D2080A43DB0844E74246D0
:101F30009E4B61081A401300012214400C43DA073B
:101F40005B089846144341E61A001F3EF240160013
:101F5000202903D04022511A8B401C43621E944119
:101F600000233443984600261DE70C00203AD44055
:101F700022006446202C04D040273F1BB940084370
:101F800080464446611E8C412243E9E54C4623438A
:101F90001C00631E9C41041BA0429B415B42CB1A68
:101FA00098465D461600E2E54E461E4300D1AEE07F
:101FB000661E012C00D1FDE07B4FBC4200D107E141
:101FC000B4469BE664462022121B0C009440070096
:101FD0009040A0466446421E90416246E740444617
:101FE000D1403C4304435B18F3E66F4CA24200D15E
:101FF000D5E048445B184845894149425B18DC07F5
:1020000040085B08984616000443CCE6002A00D03E
:1020100082E00A00024340D1802300251B0313E71E
:102020004B07C2081A435D46CB08C5E64A46841AE8
:10203000A0429241CB1A52429B1A98465D469EE5B9
:102040004A465907D2080A43DB08F9E64A46141AF9
:10205000A14592415B1A52429B1A9846012686E599
:102060004A465907D2080A43DB08A5E64C462343F3
:102070001C00631E9C415BE665461E00203DEE4051
:10208000202C05D040252D1BAB404C461C43A246BE
:102090005446631E9C4134437DE74B07C2081A43F4
:1020A0005D46CB08CCE60A00024300D136E74B0779
:1020B000C2081A435D46CB0881E64A46841AA0420C
:1020C0009241CB1A52429B1A98465D4601264EE534
:1020D0004B07C2081A43CB08B2E64A46141AA14578
:1020E00092415F1A5242BA1A904612026BD54A4682
:1020F000841AA0429241CB1A52429B1A98465D46DE
:1021000064E54B07C2081A435D46CB0898E64B07C7
:10211000C2081A43CB084FE60A00024390D04A4651
:102120005C07D20814438022DB081203134208D054
:10213000CE08164205D1C0084907084304005D4691
:102140003300610FE2004907D2080A4378E64B07E3
:10215000C2081A43CB0832E648445B18484592410E
:10216000984652429044434604001B0200D41AE6AB
:1021700042460E4B01261A40904614E666461F0062
:10218000203EF740202C05D04026361BB3404C465D
:102190001C43A2465446631E9C413C43C8E51100C3
:1021A0000023002232E5C046FF070000FFFF7FFF4B
:1021B000FE0700004A461418844292415B18984674
:1021C00052429044E9E54246224300D1A6E6EAE5C0
:1021D0004B07C2081A43CB0832E60022014913001C
:1021E00014E5C046FF07000070B505000C480C035D
:1021F000160049001A035B00240B490D120B5B0DFE
:10220000814208D0064900208B4203D1324310009E
:10221000421E904170BD01202C43FBD1F2E7C04625
:10222000FF0700000A0030B5134C530009030500F6
:10223000090B00205B0DD20FA34204DD0F4883423F
:1022400002DD0F4BD01830BD8020400301430D4804
:10225000C01A1F2808DD0C48C31AD9400B00584289
:10226000002AF0D11800EEE7084CC540A4466344AC
:1022700099400B002B43F2E7FE0300001D04000011
:10228000FFFFFF7F3304000013040000EDFBFFFF9E
:1022900070B5002816D0C317C5185D40C40F2800BC
:1022A00000F01CF9114A121A0A2816DC03002E004D
:1022B00015339E400B23181AC54053052D032D0BD3
:1022C0005B0D03E000240023002500261B052B43A3
:1022D000E40723433000190070BD0B3885405305D7
:1022E0002D0300262D0B5B0DF0E7C0461E040000F9
:1022F00010B5041E10D000F0F1F80F4B1B1A0A287D
:1023000011DC0B222100121AD14015300A035B05A3
:102310008440120B5B0D01E0002300221B051343D8
:102320002000190010BD22000B3882405B0512030B
:102330000024120B5B0DF1E71E04000070B5430092
:102340004602C40FFE201B0E591C750A08420CD011
:10235000E022920094466D07360B63441B0533431D
:10236000E40723432800190070BD002B14D1002D71
:102370001BD0280000F0B2F80A281CDC0B232A002E
:102380001B1ADA40030015339D400E4B12031B1A33
:102390005B05160B5B0DE1E7002D09D0320B8026A3
:1023A0003603094B6D071643D8E700230026D5E70F
:1023B0000026054BD2E703002A000B3B9A4000257C
:1023C000E3E7C04689030000FF07000002004B005E
:1023D000F0B508035B0D3D4ECC0F400A510F5F1C5A
:1023E0000843D50037420AD039495E18FE2E16DD63
:1023F000FF230021DB050B43E0071843F0BD002B52
:1024000006D1284327D005218901490ADBB2F1E72B
:102410000543EDD08021C903FF230143EAE7002EE5
:102420001CDD920111004A1E9141C0006D0F014355
:1024300029434B0748D00F230B40042B00D0043115
:102440008023DB040B403FD0721CFE2ED0D08901CC
:10245000490AD3B2CEE700230021CBE7320017327E
:1024600022DB80211E2209040843921B1F2A1DDD46
:10247000022149428E1B0100F1400E00202A04D0A7
:10248000144A944663449840054329004D1EA941CF
:10249000314300264B07CED180200B00C00401221F
:1024A00003400142D3D1AFE70023ACE70A498C4691
:1024B00029006344D1409D400A00290098404D1EE8
:1024C000A94101431143E4E733009DE7FE07000003
:1024D00080FCFFFFA2FCFFFF82FCFFFF1C21012309
:1024E0001B04984201D3000C10391B0A984201D3F7
:1024F000000A08391B09984201D30009043902A2D5
:10250000105C40187047C04604030202010101013B
:10251000000000000000000010B5002903D1FFF703
:10252000DDFF203002E0081CFFF7D8FF10BDC046D9
:1025300080B584B000AFF8607A600B203B180A1CAD
:102540001A70244BFA681A60224B3A1812781A71E2
:10255000204B7A689A601F4B01221A731E4BAF22E0
:102560001A701D4B1D4A5A801B4B1D4A5A601A4B4C
:10257000BC221A72184B1B4A5A81174B1A4ADA604E
:10258000154BAF221A74144B184A5A82124B184A30
:102590005A61114BAF221A760F4B164A5A830E4BD3
:1025A000154ADA610C4B2022BC2199540A4B134A7C
:1025B0005A84094B124A5A62074B2822AF21995478
:1025C000054B104A5A85044B0F4ADA62C046BD4695
:1025D00004B080BD4C020020FC0100200107000077
:1025E000F52600080108000019270008040700006C
:1025F0008D27000802070000A1270008020800003C
:10260000D9270008030700001929000890B587B0F2
:1026100000AF364B1B7B012B01D0012362E0082465
:102620003B1900221A60314B1868304B9B683919EE
:10263000042203F0B1FA031E53D11223FB18210028
:102640007A1812781A707B185B781B021AB27B1802
:102650009B781BB213431AB21023FB181A807B1805
:10266000DA780F217B1801321A703B0000221A60C1
:1026700000229A801D4B18687B181B789AB21B4B5E
:102680009B68390003F088FA031E28D1184B7B6140
:102690001323FB1800221A701CE07B691B7812229E
:1026A000BA1812789A420CD17B695B881022BA184A
:1026B00012889A4205D17B695B683A0010009847FE
:1026C0000DE07B6908337B6113217B181A787B1836
:1026D00001321A701323FB181B78052BDDD9002358
:1026E00000E001231800BD4607B090BD4C02002059
:1026F000FC01002080B582B000AF78607B681A785A
:102700007B6801331B781900100000F045F9C046C2
:10271000BD4602B080BD0000B0B58EB000AF78609D
:102720007B681B78AA2B28D100237B633423FB18FA
:10273000180000F0D9F90C257B1900221A60043327
:1027400024220021180003F0BDFF7B6B181CFFF74B
:10275000F5FD02000B000B49781904F035FC0A4B1B
:102760001C687B191800FDF7CFFC03009AB2064BDA
:102770009B687919200003F067F9C046BD460EB08A
:10278000B0BDC046889500084C02002080B582B0DC
:1027900000AF786000F066F9C046BD4602B080BD6B
:1027A00080B582B000AF78607B681A787B680133AF
:1027B0001B781900100000F0EFF87B6802331A78DC
:1027C0007B6803331B781900100000F0E5F8C04661
:1027D000BD4602B080BD0000B0B58CB000AF7860DF
:1027E00008243B1900221A60043324220021180017
:1027F00003F068FF7B681B78AA2B45D1414B18007A
:1028000000F02CFA031E1DD17B6801331A783D4B72
:102810001100180000F0DEF93B4A25007B19110079
:10282000180004F0D1FB394B1C687B191800FDF728
:102830006BFC03009AB2354B9B687919200003F0BA
:1028400003F95BE02F4B180000F0FCF97B680133C3
:102850001A782C4B1100180000F0BCF92A4A082500
:102860007B191100180004F0AFFB284B1C687B1982
:102870001800FDF749FC03009AB2244B9B687919B4
:10288000200003F0E1F839E07B681B78FF2B35D19D
:102890001C4B180000F0E2F90300012B19D1194B71
:1028A000180000F0CFF91A4A08257B19110018000A
:1028B00004F08AFB154B1C687B191800FDF724FCFB
:1028C00003009AB2114B9B687919200003F0BCF801
:1028D00014E0104A08257B191100180004F074FB5D
:1028E0000A4B1C687B191800FDF70EFC03009AB216
:1028F000064B9B687919200003F0A6F8C046BD4638
:102900000CB0B0BDA8020020A49500084C02002025
:10291000C4950008E495000880B584B000AF7860E5
:102920000F23FB1800221A700EE00F203B181B78B3
:102930007A68D2183B181B781178154AD1543B1885
:102940001A783B1801321A700F23FB181B78032BDF
:10295000EBD9104B180000F081F9031E08D17B68F9
:1029600004331A780B4B1100180000F033F90BE018
:10297000084B180000F066F97B6804331A78054BA1
:102980001100180000F026F9C046BD4604B080BD15
:102990002C020020E802002080B582B000AF0200C7
:1029A000FB1D1A70BB1D0A1C1A70FB1D1B78012B26
:1029B00013D1BB1D1B78012B07D1A023DB050122FE
:1029C0004021180001F0B0F846E0A023DB0500220A
:1029D0004021180001F0A8F83EE0FB1D1B78022BF7
:1029E00013D1BB1D1B78012B07D1A023DB050122CE
:1029F0008021180001F098F82EE0A023DB050022CA
:102A00008021180001F090F826E0FB1D1B78032BB5
:102A100011D1BB1D1B78012B06D1114B01220121C5
:102A2000180001F081F817E00D4B00220121180079
:102A300001F07AF810E0BB1D1B78012B06D1084B82
:102A400001220221180001F06FF805E0044B00227A
:102A50000221180001F068F8C046BD4602B080BDF2
:102A60000004005080B500AF104B180000F0EAF8E9
:102A7000A023DB0500224021180001F055F8A02317
:102A8000DB0500228021180001F04EF8084B0022DF
:102A90000121180001F048F8054B0022022118001E
:102AA00001F042F8C046BD4680BDC046E8020020A5
:102AB0000004005080B584B000AFF8607A600B204D
:102AC0003B180A1C1A70074BFA681A60054B3A1833
:102AD00012781A71034B7A689A60C046BD4604B0FA
:102AE00080BDC0463002002090B587B002AF78604C
:102AF0000C243B1900221A80304B18682F4B1B798D
:102B00009BB2DB1899B22D4B9B682D4A0093012391
:102B100001F0BEF8031E0ED1284B1868274B1B7915
:102B20009BB2DB1899B2254B9B683A19013200938E
:102B3000012301F0B5F9214B1868204B1B799BB29A
:102B4000DB1899B21D4B9B681E4A0093012301F0CC
:102B50009FF8031E0ED1194B1868184B1B799BB2B6
:102B6000DB1899B2154B9B680C22BA18009301230D
:102B700001F096F90C22BB185B781B02BA18127888
:102B800013431800FFF784FB00220F4BFEF72EFDC6
:102B900002000B00100019000C4A0D4BFEF726FD39
:102BA00002000B0010001900FFF710FC021C7B68EC
:102BB0001A60C046BD4605B090BDC0463002002038
:102BC0000000002001000020008853408DEDB5A0DA
:102BD000F7C6B03E80B584B000AF78600A00FB1C39
:102BE0001A700023FB600023BB60FB1C1B781800DD
:102BF000FFF74EFB114A124BFEF7F2F802000B00F2
:102C000010001900FDF798FC0300BB607B681B688F
:102C1000022252421A617B681B68FA685A627B681A
:102C20001B68BA68DA627B68BA68DA607B68180089
:102C300002F07AFCC046BD4604B080BDFCA9F1D2CA
:102C40004D62503F80B582B000AF78607B6818005D
:102C500002F0BCFCC046BD4602B080BD80B582B06B
:102C600000AF78607B681B681B68002B01D00123D4
:102C700000E000231800BD4602B080BD90B58BB0C7
:102C800000AF14243B19180014231A00002103F08C
:102C900019FD444BDA6A434B04210A43DA62414B83
:102CA000DB6A042213403B613B693E4BDA6A3D4BD1
:102CB00080210A43DA623B4BDB6A80221340FB60CF
:102CC000FB68384BDA6A374B01210A43DA62354B2D
:102CD000DB6A01221340BB60BB68324BDA6A314BBE
:102CE00002210A43DA622F4BDB6A022213407B6027
:102CF0007B68A023DB050022C021180000F014FF30
:102D0000294B00220321180000F00EFF3B198022FE
:102D100092011A603B1900225A603B1900229A6006
:102D20003B19224A1900100000F080FD3B19C02217
:102D30001A603B1901225A603B1900229A603B1924
:102D40000022DA603A19A023DB051100180000F018
:102D50006DFD3B1903221A603B1901225A603B1991
:102D600000229A603B190022DA603B190E4A1900D2
:102D7000100000F05BFD21007B18802212011A6018
:102D80007B1800225A607B1800229A607A18A023D0
:102D9000DB051100180000F049FDC046BD460BB030
:102DA00090BDC046001002400004005000080050D2
:102DB00080B500AF1B4B1C4A1A601A4B1B4A5A6065
:102DC000184B00229A60174B0122DA60154B002243
:102DD0001A61144B00225A61124B00229A61114B66
:102DE0000022DA610F4B00221A620E4B180000F02D
:102DF000B9FE031E01D000F025F90A4B002118008E
:102E000001F04EFB031E01D000F01CF9054B002120
:102E1000180001F091FB031E01D000F013F9C04629
:102E2000BD4680BD5C020020005400400E09002019
:102E300090B589B000AF78600C243B1918001423BA
:102E40001A00002103F03EFC7B681B68174A93427E
:102E500028D1174BDA6A164B02210A43DA62144B67
:102E6000DB6A02221340BB60BB6821007B18C022D2
:102E70001A607B1812225A607B1801229A607B1814
:102E80000322DA607B1801221A617B18094A1900B3
:102E9000100000F0CBFC064B9A6B054B8021890398
:102EA0000A439A63C046BD4609B090BD0054004035
:102EB000001002400004005090B58DB000AF00F04B
:102EC00067FB00F057F8FFF7D9FEFFF771FF00F03E
:102ED0000FFA00F049FA00F0B9FA01210220FFF7D9
:102EE0005BFD1F4B142236211800FFF7E3FD1D4B3D
:102EF000642204211800FFF71BFBFFF787FB1A4B26
:102F00001B78012BF9D1184B00221A700023FB62A9
:102F10002C23FB181800FFF7E7FD3B1D00221A6069
:102F2000043324220021180003F0CCFBFB6A181C98
:102F3000FFF704FA02000B000C49381D04F044F8B6
:102F40000B4B1C683B1D1800FDF7DEF803009AB21E
:102F5000074B9B68391D200002F076FDCDE7C04687
:102F60005C020020280300203C0200200C96000890
:102F70004C02002090B59FB000AF40243B191800D0
:102F800038231A00002103F09DFB2C23FB181800A6
:102F900014231A00002103F095FB3B1D1800282381
:102FA0001A00002103F08EFB244B1B68244A1A40B0
:102FB000224B802109010A431A603B1901221A6041
:102FC0003B19802252025A603B1900229A623B1937
:102FD000180001F0FDFA031E01D000F033F82C2197
:102FE0007B180F221A607B1802225A607B1800227D
:102FF0009A607B180022DA607B1800221A617B1825
:103000000021180001F0B8FE031E01D000F01AF8EC
:103010003B1D09221A603B1D0022DA603B1D002285
:103020009A613B1D180002F0CBF8031E01D000F09E
:1030300009F8C046BD461FB090BDC04600700040B4
:10304000FFE7FFFF80B500AF72B6C046FEE70000A5
:1030500080B500AF074B5A6B064B01210A435A63F8
:10306000044B9A6B034B802149050A439A63C0467F
:10307000BD4680BD0010024080B500AFFEE780B5C0
:1030800000AFFEE780B500AFC046BD4680BD80B54D
:1030900000AFC046BD4680BD80B500AF00F0CCFAA1
:1030A000C046BD4680BD000080B500AF034B180090
:1030B00002F0B2FAC046BD4680BDC046A80200205C
:1030C00080B500AF034B180002F0A6FAC046BD461B
:1030D00080BDC046E802002080B582B000AF7860B5
:1030E0007B681B681B4A934203D11B4B01221A7059
:1030F0002BE07B681B68194A934226D100210120EE
:10310000FFF74AFC00210220FFF746FC00210320C4
:10311000FFF742FC00210420FFF73EFC104B1B7818
:103120001A00104B9B5CDBB201211800FFF734FC46
:103130000B4B1B780133DAB2094B1A70084B1B7822
:10314000032B02D9064B00221A70C046BD4602B0BE
:1031500080BDC046001000403C020020001400402A
:103160003D0200202C02002080B500AF0123180092
:10317000BD4680BD80B582B000AF7860396003F095
:1031800077FA030016221A6001235B421800BD463D
:1031900002B080BD80B582B000AF786001235A4292
:1031A0007B6811001800FFF7E5FFFEE780B586B0E9
:1031B00000AFF860B9607A6000237B610AE000E04C
:1031C00000BF0100BB685A1CBA60CAB21A707B69A2
:1031D00001337B617A697B689A42F0DB7B68180077
:1031E000BD4606B080BD80B586B000AFF860B9605E
:1031F0007A6000237B6109E0BB685A1CBA601B78C7
:10320000180000E000BF7B6901337B617A697B684D
:103210009A42F1DB7B681800BD4606B080BD80B5E0
:1032200082B000AF786001235B421800BD4602B057
:1032300080BD80B582B000AF786039603B68802285
:1032400092015A6000231800BD4602B080BD80B5CF
:1032500082B000AF786001231800BD4602B080BD87
:1032600080B584B000AFF860B9607A6000231800C0
:10327000BD4604B080BD000080B586B000AF786068
:10328000144A154BD31A7B617B693B61134B1B6856
:10329000002B02D1114B124A1A60104B1A687B683E
:1032A000D3183A699A4207D203F0E2F903000C22DC
:1032B0001A6001235B4209E0084B1B68FB60074B67
:1032C0001A687B68D218054B1A60FB681800BD4667
:1032D00006B080BD00500020000400004002002025
:1032E000C003002080B500AFC046BD4680BD0000D1
:1032F00080B582B000AF3B00180008231A000021FF
:1033000003F0E0F9154B164A1A60144B154A5A603F
:10331000124B00229A60114B0022DA600F4B002200
:103320005A610E4B180002F0BFF8031E01D0FFF7E0
:1033300089FE3B0000221A603B0000225A603A00DE
:10334000064B1100180002F0CDFA031E01D0FFF762
:1033500079FEC046BD4602B080BDC046A80200202E
:10336000001000403F1F000080B582B000AF3B005E
:10337000180008231A00002103F0A4F9154B164A7F
:103380001A60144B154A5A60124B00229A60114B76
:103390000022DA600F4B00225A610E4B180002F037
:1033A00083F8031E01D0FFF74DFE3B0000221A6098
:1033B0003B0000225A603A00064B1100180002F050
:1033C00091FA031E01D0FFF73DFEC046BD4602B094
:1033D00080BDC046E8020020001400403F1F0000EE
:1033E00080B582B000AF78607B681B68144A934256
:1033F0000ED1144B9A6B134B10210A439A6300228F
:103400000321112000F0E0F9112000F0F2F912E0A0
:103410007B681B680C4A93420DD10A4B9A6B094B8F
:1034200020210A439A6300220321122000F0CCF9E4
:10343000122000F0DEF9C046BD4602B080BDC04695
:1034400000100040001002400014004080B500AFA2
:10345000164B174A1A60154B962292015A60134B6D
:1034600000229A60114B0022DA60104B00221A6190
:103470000E4B0C225A610D4B00229A610B4B00221D
:10348000DA610A4B00221A62084B08225A62074B83
:10349000802212025A63054B180002F081FA031EC3
:1034A00001D0FFF7CFFDC046BD4680BD28030020F8
:1034B0000038014090B589B000AF78600C243B190A
:1034C000180014231A00002103F0FCF87B681B6825
:1034D000184A93422AD1184B5A6B174B8021C901C5
:1034E0000A435A63144BDA6A134B01210A43DA6226
:1034F000114BDB6A01221340BB60BB683B19C02241
:10350000D2001A6021007B1802225A607B18002228
:103510009A607B180322DA607B1804221A617A18F9
:10352000A023DB051100180000F080F9C046BD465D
:1035300009B090BD00380140001002400D4885469A
:103540000D480E490E4A002302E0D458C4500433FB
:10355000C4188C42F9D30B4A0B4C002301E01360D2
:103560000432A242FBD3FFF7BDFE03F087F8FFF75A
:10357000A3FCFEE70050002000000020E001002036
:10358000049B0008E0010020C0030020FEE70000CB
:1035900080B582B000AFFB1D00221A700B4B1A6879
:1035A0000A4B40210A431A60002000F011F8031E64
:1035B00003D0FB1D01221A7001E0FFF749FDFB1D3E
:1035C0001B781800BD4602B080BDC04600200240F6
:1035D00090B583B000AF7860144B1C68144B1B7817
:1035E0001900FA239800FCF7ABFD03001900200036
:1035F000FCF7A6FD0300180000F00BF9031E01D034
:1036000001230FE07B68032B0BD8796801235B4211
:103610000022180000F0D8F8064B7A681A600023E0
:1036200000E001231800BD4603B090BD0400002057
:103630000C0000200800002080B500AF054B1B786F
:103640001A00054B1B68D218034B1A60C046BD46D2
:1036500080BDC0460C000020AC03002080B500AF48
:10366000024B1B681800BD4680BDC046AC0300205D
:1036700080B582B000AF0200FB1D1A70FB1D1B78E5
:103680007F2B09D8FB1D1B781A001F231A40044BFF
:10369000012191400A001A60C046BD4602B080BDBB
:1036A00000E100E090B583B000AF02003960FB1D7F
:1036B0001A70FB1D1B787F2B28D82F4AFB1D1B7807
:1036C0005BB29B08C0339B009B58FA1D1278110017
:1036D00003220A40D200FF2191400A00D2431A403F
:1036E00011003B689B01FF221A40FB1D1B7818004C
:1036F00003230340DB009A401F48FB1D1B785BB28D
:103700009B080A43C0339B001A5031E01B4AFB1D43
:103710001B7819000F230B40083B9B0806339B00C6
:10372000D31804331B68FA1D1278110003220A40D3
:10373000D200FF2191400A00D2431A4011003B6899
:103740009B01FF221A40FB1D1B7818000323034036
:10375000DB009A400948FB1D1B781C000F23234007
:10376000083B9B080A4306339B00C31804331A60C6
:10377000C046BD4603B090BD00E100E000ED00E0B2
:1037800080B582B000AF78607B685A1E80235B04EE
:103790009A4201D3012310E00A4B7A68013A5A6039
:1037A00001235B4203211800FFF77CFF054B002239
:1037B0009A60044B07221A6000231800BD4602B02D
:1037C00080BDC04610E000E080B584B000AFB960B5
:1037D0007A600F217B18021C1A70BA687B181B785C
:1037E0005BB211001800FFF75DFFC046BD4604B094
:1037F00080BD80B582B000AF0200FB1D1A70FB1DBA
:103800001B785BB21800FFF733FFC046BD4602B01D
:1038100080BD80B582B000AF78607B681800FFF78C
:10382000AFFF03001800BD4602B080BD80B586B072
:1038300000AF7860396000237B610023FB600023C8
:103840003B6155E13B681B6801217A6991400A00A0
:103850001340FB60FB68002B00D146E13B685B68CE
:1038600003221340012B05D03B685B680322134001
:10387000022B30D17B689B683B617B695B00032234
:103880009A401300DA433B6913403B613B68DA68B6
:103890007B695B009A4013003A6913433B617B6884
:1038A0003A699A607B685B683B6101227B699A4058
:1038B0001300DA433B6913403B613B685B681B09BB
:1038C00001221A407B699A4013003A6913433B6115
:1038D0007B683A695A603B685B6803221340032B9C
:1038E00017D07B68DB683B617B695B0003229A40F1
:1038F0001300DA433B6913403B613B689A687B697C
:103900005B009A4013003A6913433B617B683A6954
:10391000DA603B685B6803221340022B23D17B698A
:10392000DA087B6808329200D3583B617B69072232
:1039300013409B000F229A401300DA433B69134067
:103940003B613B681A697B6907210B409B009A40E9
:1039500013003A6913433B617B69DA087B680832DC
:1039600092003969D1507B681B683B617B695B00C1
:1039700003229A401300DA433B6913403B613B68E2
:103980005B6803221A407B695B009A4013003A6926
:1039900013433B617B683A691A603B685A68C023ED
:1039A0009B02134000D1A0E0574B5A6B564B0121AC
:1039B0000A435A63554A7B699B0802339B009B5814
:1039C0003B617B69032213409B000F229A40130046
:1039D000DA433B6913403B617A68A023DB059A42D6
:1039E0001FD07B684A4A934219D07B68494A934268
:1039F00013D07B68484A93420DD07B68474A934274
:103A000007D07B68464A934201D105230AE006238A
:103A100008E0042306E0032304E0022302E001237C
:103A200000E000237A6903210A40920093403A693A
:103A300013433B6135497B699B0802339B003A691C
:103A40005A50384B1B683B61FB68DA433B691340B3
:103A50003B613B685A6880235B02134003D03A699C
:103A6000FB6813433B612F4B3A691A602D4B5B682F
:103A70003B61FB68DA433B6913403B613B685A6832
:103A800080239B02134003D03A69FB6813433B61D8
:103A9000244B3A695A60234B9B683B61FB68DA43CD
:103AA0003B6913403B613B685A6880235B031340CA
:103AB00003D03A69FB6813433B611A4B3A699A6039
:103AC000184BDB683B61FB68DA433B6913403B61A1
:103AD0003B685A6880239B03134003D03A69FB6814
:103AE00013433B610F4B3A69DA607B6901337B61B9
:103AF0003B681A687B69DA40131E00D0A2E6C04614
:103B0000C046BD4606B080BD001002400000014026
:103B10000004005000080050000C0050001000503D
:103B2000001C00500004014080B582B000AF7860F6
:103B300008001100BB1C021C1A807B1C0A1C1A7096
:103B40007B1C1B78002B04D0BB1C1A887B689A61F5
:103B500003E0BB1C1A887B689A62C046BD4602B06F
:103B600080BD000080B582B000AF78607B68002B1C
:103B700001D1012382E07B6841229B5CDBB2002BF8
:103B800007D17B684022002199547B681800FFF719
:103B90004FF97B684122242199547B681B681A687D
:103BA0007B681B6801218A431A607B685A687B68BE
:103BB0001B6834490A401A617B681B689A687B68F5
:103BC0001B6831490A409A607B68DB68012B08D189
:103BD0007B689A687B681B68802109020A439A60A7
:103BE00007E07B689A687B681B68842109020A43A6
:103BF0009A607B68DB68022B04D17B681B6880229B
:103C000012015A607B681B685A687B681B681F49F1
:103C10000A435A607B681B68DA687B681B681A492C
:103C20000A40DA607B681A697B685B691A43110095
:103C30007B689B691A027B681B680A43DA607B68B1
:103C4000D9697B681A6A7B681B680A431A607B68BB
:103C50001B681A687B681B6801210A431A607B682D
:103C600000225A647B684122202199547B680022FB
:103C70001A637B6842220021995400231800BD4634
:103C800002B080BDFFFFFFF0FF7FFFFF008000025A
:103C900090B589B002AFF86008007A6019000A2375
:103CA000FB18021C1A800823FB180A1C1A80FB68E8
:103CB00041229B5CDBB2202B00D0E7E0FB68402276
:103CC0009B5C012B01D10223E1E0FB684022012132
:103CD0009954FFF7C3FC03007B6180231902F86845
:103CE0007B6900931923012200F004FA031E01D01E
:103CF0000123CCE0FB68412221219954FB68422238
:103D000010219954FB6800225A64FB687A685A6251
:103D1000FB680822BA1812885A85FB6800225A6389
:103D2000FB685B8D9BB2FF2B11D9FB68FF221A85C4
:103D3000FB681B8DDAB280235C040A23FB18198808
:103D4000F868554B0093230000F074FB75E0FB68A6
:103D50005B8D9AB2FB681A85FB681B8DDAB28023F3
:103D60009C040A23FB181988F8684B4B0093230026
:103D700000F060FB61E07A69B96AFB68180000F046
:103D8000F8F9031E01D0012381E0FB685B6A1A7811
:103D9000FB681B689A62FB685B6A5A1CFB685A6284
:103DA000FB685B8D9BB2013B9AB2FB685A85FB684E
:103DB0001B8D013B9AB2FB681A85FB685B8D9BB239
:103DC000002B3AD0FB681B8D002B36D1BA6AF868FD
:103DD0007B69009313000022802100F08BF9031E01
:103DE00001D0012353E0FB685B8D9BB2FF2B11D9FF
:103DF000FB68FF221A85FB681B8DDAB280235C0406
:103E00000A23FB181988F86800230093230000F0A8
:103E100011FB12E0FB685B8D9AB2FB681A85FB68A8
:103E20001B8DDAB280239C040A23FB181988F868DA
:103E300000230093230000F0FDFAFB685B8D9BB22A
:103E4000002B98D17A69B96AFB68180000F0D0F9A4
:103E5000031E01D001231AE0FB681B682022DA61EF
:103E6000FB681B685A68FB681B680C490A405A606B
:103E7000FB68412220219954FB6842220021995479
:103E8000FB68402200219954002300E0022318001F
:103E9000BD4607B090BDC0460020008000E800FE8F
:103EA00090B589B002AFF86008007A6019000A2363
:103EB000FB18021C1A800823FB180A1C1A80FB68D6
:103EC00041229B5CDBB2202B00D0E8E0FB68402263
:103ED0009B5C012B01D10223E2E0FB68402201211F
:103EE0009954FFF7BBFB03007B6180231902F8683C
:103EF0007B6900931923012200F0FCF8031E01D016
:103F00000123CDE0FB68412222219954FB68422223
:103F100010219954FB6800225A64FB687A685A623F
:103F2000FB680822BA1812885A85FB6800225A6377
:103F3000FB685B8D9BB2FF2B11D9FB68FF221A85B2
:103F4000FB681B8DDAB280235C040A23FB181988F6
:103F5000F868554B0093230000F06CFA76E0FB689C
:103F60005B8D9AB2FB681A85FB681B8DDAB28023E1
:103F70009C040A23FB181988F8684B4B0093230014
:103F800000F058FA62E07A69B96AFB68180000F03C
:103F90006BF9031E01D0012382E0FB681B685A6A9B
:103FA000FB685B6AD2B21A70FB685B6A5A1CFB68DA
:103FB0005A62FB681B8D013B9AB2FB681A85FB684D
:103FC0005B8D9BB2013B9AB2FB685A85FB685B8DA7
:103FD0009BB2002B3AD0FB681B8D002B36D1BA6AFE
:103FE000F8687B69009313000022802100F082F8BA
:103FF000031E01D0012353E0FB685B8D9BB2FF2BB6
:1040000011D9FB68FF221A85FB681B8DDAB2802369
:104010005C040A23FB181988F86800230093230026
:1040200000F008FA12E0FB685B8D9AB2FB681A8513
:10403000FB681B8DDAB280239C040A23FB181988C5
:10404000F86800230093230000F0F4F9FB685B8D0F
:104050009BB2002B97D17A69B96AFB68180000F00F
:10406000C7F8031E01D001231AE0FB681B68202259
:10407000DA61FB681B685A68FB681B680B490A40D9
:104080005A60FB68412220219954FB68422200219A
:104090009954FB68402200219954002300E0022338
:1040A0001800BD4607B090BD0024008000E800FE67
:1040B00080B582B000AF78607B681B689B69022284
:1040C0001340022B03D17B681B6800229A627B6835
:1040D0001B689B6901221340012B07D07B681B687A
:1040E0009A697B681B6801210A439A61C046BD46F4
:1040F00002B080BD80B584B000AFF860B9603B60AD
:10410000FB1D1A7021E03B6801331ED0FFF7A6FAB1
:104110000200BB69D31A3A689A4202D33B68002B6B
:1041200013D1FB685B6C20221A43FB685A64FB685E
:10413000412220219954FB68422200219954FB68B6
:1041400040220021995401230FE0FB681B689B6902
:10415000BA681340BA68D31A5A425341DBB21A0004
:10416000FB1D1B789A42CED000231800BD4604B038
:1041700080BD80B584B000AFF860B9607A602BE094
:104180007A68B968FB68180000F0DAF8031E01D0FD
:10419000012329E0BB6801331ED0FFF75FFA02005C
:1041A0007B68D31ABA689A4202D3BB68002B13D13A
:1041B000FB685B6C20221A43FB685A64FB6841224F
:1041C00020219954FB68422200219954FB68402227
:1041D00000219954012307E0FB681B689B690222B8
:1041E0001340022BCCD100231800BD4604B080BD83
:1041F00080B584B000AFF860B9607A6028E07A6872
:10420000B968FB68180000F09BF8031E01D0012379
:1042100026E0FFF723FA02007B68D31ABA689A42B5
:1042200002D3BB68002B13D1FB685B6C20221A43BE
:10423000FB685A64FB68412220219954FB684222A2
:1042400000219954FB68402200219954012307E082
:10425000FB681B689B6920221340202BCFD10023D1
:104260001800BD4604B080BD80B584B000AFF860D2
:10427000B9607A6055E07A68B968FB68180000F0A8
:104280005FF8031E01D0012353E0FB681B689B69A4
:1042900020221340202B29D1FB681B689B69042234
:1042A0001340042B05D1FB681B8D002B01D000238C
:1042B0003FE0FB681B682022DA61FB681B685A68D4
:1042C000FB681B681D490A405A60FB6800225A645B
:1042D000FB68412220219954FB6842220021995415
:1042E000FB68402200219954012322E0FFF7B6F930
:1042F00002007B68D31ABA689A4202D3BB68002BCB
:104300000FD1FB685B6C20221A43FB685A64FB6880
:10431000412220219954FB68402200219954012315
:1043200007E0FB681B689B6904221340042BA2D1A1
:1043300000231800BD4604B080BDC04600E800FE62
:1043400080B584B000AFF860B9607A60FB681B6824
:104350009B6910221340102B64D1FB681B685A68BC
:1043600080239B041A4080239B049A422BD0FB6835
:104370001B685A68FB681B688021C9010A435A60A0
:1043800021E0BB6801331ED0FFF768F902007B68AB
:10439000D31ABA689A4202D3BB68002B13D1FB68C8
:1043A0005B6C20221A43FB685A64FB68412220217F
:1043B0009954FB68422200219954FB684022002155
:1043C000995401232FE0FB681B689B69202213404E
:1043D000202BD6D1FB681B681022DA61FB681B68B2
:1043E0002022DA61FB681800FFF762FEFB681B6899
:1043F0005A68FB681B680E490A405A60FB685B6C90
:1044000004221A43FB685A64FB6841222021995414
:10441000FB68422200219954FB68402200219954F4
:10442000012300E000231800BD4604B080BDC04653
:1044300000E800FE90B585B000AFF86008001100FC
:104440007B600A243B19021C1A8009203B180A1CB5
:104450001A70FB681B685B683A6A510D8022D200B3
:104460000A400E490A43D2431A4011003B191B88E7
:104470009B059A0D3B181B781804FF231B0403406F
:104480001A437B681A433B6A1A43FB681B680A435A
:104490005A60C046BD4605B090BDC046FF63FF03ED
:1044A00080B582B000AF786039607B6841229B5C48
:1044B000DBB2202B38D17B6840229B5C012B01D1E1
:1044C000022332E07B684022012199547B6841221B
:1044D000242199547B681B681A687B681B6801213A
:1044E0008A431A607B681B681A687B681B681149DD
:1044F0000A401A607B681B6819687B681B683A6809
:104500000A431A607B681B681A687B681B68012174
:104510000A431A607B684122202199547B6840221B
:1045200000219954002300E002231800BD4602B088
:1045300080BDC046FFEFFFFF80B584B000AF78605C
:1045400039607B6841229B5CDBB2202B39D17B68D0
:1045500040229B5C012B01D1022333E07B68402287
:10456000012199547B684122242199547B681B685E
:104570001A687B681B6801218A431A607B681B6884
:104580001B68FB60FB68114A1340FB603B681B0221
:10459000FA681343FB607B681B68FA681A607B68E3
:1045A0001B681A687B681B6801210A431A607B68D4
:1045B0004122202199547B684022002199540023F4
:1045C00000E002231800BD4604B080BDFFF0FFFFED
:1045D000B0B58AB000AF78607B68002B02D10123B0
:1045E00000F0BFFBC94BDB680C221340FB61C74BDB
:1045F000DA6880235B021340BB617B681B68012281
:10460000134000D17EE0FB69082B07D0FB690C2B1F
:1046100012D1BA6980235B029A420DD1BB4B1A6852
:1046200080239B02134000D16BE07B685B68002B0A
:1046300067D1012300F095FB7B685A6880235B02F9
:104640009A4207D1B14B1A68B04B802149020A4304
:104650001A6027E07B685A68A023DB029A420ED1D9
:10466000AA4B1A68A94B8021C9020A431A60A74BBA
:104670001A68A64B802149020A431A6012E0A34B34
:104680001A68A24BA2490A401A60A04B1A688023FC
:104690005B021340FB60FB689C4B1A689B4B9D4977
:1046A0000A401A607B685B68002B15D0FEF7D6FFC6
:1046B00003007B6109E0FEF7D1FF02007B69D31A9A
:1046C000642B02D9032300F04CFB904B1A68802323
:1046D0009B021340EFD015E0FEF7C0FF03007B61A3
:1046E00008E0FEF7BBFF02007B69D31A642B01D9F7
:1046F000032336E3854B1A6880239B021340F0D1D5
:1047000000E0C0467B681B680222134000D199E09C
:104710007B68DB687B627B6A2022134009D07B4B7D
:104720001A687A4B20210A431A607B6A202293433D
:104730007B62FB69042B05D0FB690C2B3ED1BB6966
:10474000002B3BD1714B1B680422134004D07B6AC1
:10475000002B01D1012304E36C4B5B686E4A1340CC
:1047600019007B681B691A02684B0A435A60674B41
:104770001B68092293431900644B7A6A0A431A6042
:1047800000F042FC0100614BDB681B090F22134063
:10479000624AD35C0A00DA40614B1A60614B1B68C5
:1047A00013257C191800FEF713FF030023707B19F3
:1047B0001B78002B46D07B191B78D2E27B6A002B3A
:1047C00027D0524B1B680922934319004F4B7A6A3A
:1047D0000A431A60FEF742FF03007B6108E0FEF720
:1047E0003DFF02007B69D31A022B01D90323B8E2F3
:1047F000464B1B6804221340F1D0444B5B68464A89
:10480000134019007B681B691A02404B0A435A6027
:1048100018E03E4B1A683D4B01218A431A60FEF7AF
:104820001DFF03007B6108E0FEF718FF02007B69B3
:10483000D31A022B01D9032393E2344B1B680422C1
:104840001340F1D17B681B681022134000D1A2E015
:10485000FB69002B40D12D4B1A6880239B0013402D
:1048600005D07B68DB69002B01D1012379E2274B5E
:104870005B682D4A134019007B685A6A234B0A4330
:104880005A60224B5B681B02190A7B681B6A1A0676
:104890001E4B0A435A607B685B6A5B0B01338022C4
:1048A00012029A40194BDB681B090F210B401B4970
:1048B000CB5CDA401A4B1A601A4B1B6813257C1923
:1048C0001800FEF785FE030023707B191B78002B70
:1048D00061D07B191B7844E27B68DB69002B40D0F8
:1048E0000A4B1A68094B802149000A431A60FEF7F7
:1048F000B5FE03007B6119E0FEF7B0FE02007B69A4
:10490000D31A022B12D903232BE2C0460010024017
:10491000FFFFFEFFFFFFFBFFFFE0FFFFA896000881
:104920000400002008000020FF1FFFFFCA4B1A6888
:1049300080239B001340DFD0C74B5B68C74A1340FE
:1049400019007B685A6AC44B0A435A60C24B5B68C1
:104950001B02190A7B681B6A1A06BF4B0A435A607E
:1049600019E0BD4B1A68BC4BBD490A401A60FEF7FE
:1049700075FE03007B6108E0FEF770FE02007B69B4
:10498000D31A022B01D90323EBE1B34B1A6880231E
:104990009B001340F0D17B681B680822134036D07F
:1049A0007B685B69002B19D0AB4B1A6DAA4B0121B8
:1049B0000A431A65FEF752FE03007B6108E0FEF72A
:1049C0004DFE02007B69D31A022B01D90323C8E1F3
:1049D000A14B1B6D02221340F1D018E09E4B1A6DC3
:1049E0009D4B01218A431A65FEF738FE03007B6167
:1049F00008E0FEF733FE02007B69D31A022B01D9CF
:104A00000323AEE1944B1B6D02221340F1D17B686E
:104A10001B680422134000D1AEE023203B18002283
:104A20001A708D4B9A6B80235B05134009D18A4B1A
:104A30009A6B894B802149050A439A633B180122EE
:104A40001A70884B1A6880235B0013401AD1854B7B
:104A50001A68844B802149000A431A60FEF7FEFD64
:104A600003007B6108E0FEF7F9FD02007B69D31AC1
:104A7000642B01D9032374E17A4B1A6880235B000D
:104A80001340F0D07B689A6880235B009A4207D17C
:104A9000714B1A6D704B802149000A431A6531E051
:104AA0007B689B68002B0CD16B4B1A6D6A4B6C4971
:104AB0000A401A65684B1A6D674B6B490A401A65C4
:104AC00020E07B689A68A023DB009A420ED1624BFB
:104AD0001A6D614B8021C9000A431A655E4B1A6D3D
:104AE0005D4B802149000A431A650BE05A4B1A6D51
:104AF000594B5B490A401A65574B1A6D564B5A4938
:104B00000A401A657B689B68002B15D0FEF7A6FD4E
:104B100003007B6109E0FEF7A1FD02007B69D31A67
:104B2000524A934201D903231BE14B4B1A6D802358
:104B30009B001340EFD014E0FEF790FD03007B6173
:104B400009E0FEF78BFD02007B69D31A474A9342C6
:104B500001D9032305E1404B1A6D80239B001340CC
:104B6000EFD12323FB181B78012B05D13A4B9A6B0D
:104B7000394B3F490A409A637B681B6820221340E7
:104B800049D07B689B69002B26D0334B9A68324B07
:104B900001210A439A60304B5A6B2F4B01210A4383
:104BA0005A63344B1A6A334B802189010A431A62D3
:104BB000FEF754FD03007B6108E0FEF74FFD0200A5
:104BC0007B69D31A022B01D90323CAE0224B9B68CD
:104BD00002221340F1D01EE01F4B9A681E4B0121A8
:104BE0008A439A60234B1A6A224B23490A401A626D
:104BF000FEF734FD03007B6108E0FEF72FFD0200A5
:104C00007B69D31A022B01D90323AAE0124B9B68BC
:104C100002221340F1D17B689B6A002B00D19FE0F8
:104C2000FB690C2B00D178E07B689B6A022B59D181
:104C3000094B1A68084B11490A401A60FEF70EFD2D
:104C400003007B611CE0FEF709FD02007B69D31ABB
:104C5000022B15D9032384E000100240FF1FFFFF41
:104C6000FFFEFFFF00700040FFFBFFFF8813000006
:104C7000FFFFFFEF00000140FFDFFFFFFFFFFFFE30
:104C80003A4B1A6880239B041340DCD1374BDB6816
:104C9000374A134019007B68DA6A7B681B6B1A433A
:104CA0007B685B6B1A43314B0A43DA602F4B1A68FF
:104CB0002E4B802149040A431A60FEF7CFFC030003
:104CC0007B6108E0FEF7CAFC02007B69D31A022B65
:104CD00001D9032345E0254B1A6880239B04134028
:104CE000F0D03DE0214B1A68204B22490A401A605F
:104CF000FEF7B4FC03007B6108E0FEF7AFFC0200A6
:104D00007B69D31A022B01D903232AE0174B1A68B7
:104D100080239B041340F0D122E07B689B6A012B27
:104D200001D101231DE0114BDB68BB61BA6980230F
:104D30005B021A407B68DB6A9A420FD1BA69F023A2
:104D40009B031A407B681B6B9A4207D1BA69C02348
:104D50001B041A407B685B6B9A4201D0012300E080
:104D600000231800BD460AB0B0BDC0460010024086
:104D7000FFFF02FFFFFFFFFEB0B584B000AF786019
:104D800039607B68002B01D1012328E1964B1B6819
:104D9000012213403A689A421ED9934B1B680122A4
:104DA00093431900904B3A680A431A60FEF756FC89
:104DB0000300FB6009E0FEF751FC0200FB68D31A18
:104DC0008A4A934201D9032309E1874B1B680122D8
:104DD00013403A689A42EED17B681B680222134066
:104DE00009D0834BDB68F022934319007B689A68F3
:104DF0007F4B0A43DA607B681B680122134000D1B5
:104E000089E07B685B68022B07D1794B1A688023A5
:104E10009B02134020D10123E1E07B685B68032BF8
:104E200007D1734B1A6880239B04134014D10123CC
:104E3000D5E07B685B68012B06D16D4B1B680422B3
:104E4000134009D10123CAE0694B1A6880239B00F3
:104E5000134001D10123C2E0654BDB680322934379
:104E600019007B685A68624B0A43DA60FEF7F6FB6A
:104E70000300FB607B685B68022B11D109E0FEF741
:104E8000EDFB0200FB68D31A584A934201D9032371
:104E9000A5E0574BDB680C221340082BEFD13AE01A
:104EA0007B685B68032B11D109E0FEF7D7FB02009A
:104EB000FB68D31A4D4A934201D903238FE04C4B30
:104EC000DB680C2213400C2BEFD124E07B685B687D
:104ED000012B1BD109E0FEF7C1FB0200FB68D31ACE
:104EE000424A934201D9032379E0414BDB680C220B
:104EF0001340042BEFD10EE0FEF7B0FB0200FB687D
:104F0000D31A3A4A934201D9032368E0384BDB684D
:104F10000C221340F0D1344B1B68012213403A6835
:104F20009A421ED2304B1B680122934319002E4B2C
:104F30003A680A431A60FEF791FB0300FB6009E040
:104F4000FEF78CFB0200FB68D31A284A934201D972
:104F5000032344E0244B1B68012213403A689A4221
:104F6000EED17B681B680422134009D0204BDB681C
:104F7000204A134019007B68DA681D4B0A43DA6047
:104F80007B681B68082213400AD0194BDB681A4A59
:104F9000134019007B681B69DA00154B0A43DA607D
:104FA00000F032F80100124BDB681B090F2213409E
:104FB000124AD35C0A00DA40114B1A60114B1B688D
:104FC0000B257C191800FEF703FB030023707B19E7
:104FD0001B78002B02D07B191B7800E000231800FF
:104FE000BD4604B0B0BDC04600200240881300009A
:104FF00000100240FFF8FFFFFFC7FFFFA896000860
:105000000400002008000020B0B58EB000AF4C4B6B
:10501000DB68FB62FA6A0C2313400C2B14D000D916
:105020007BE0042B02D0082B0BD076E0444B1B68AE
:105030001022134002D0434B3B637CE0424B3B6366
:1050400079E0424B3B6376E0FB6A9A0C0F231A40EF
:105050003F4B9B5CBB62FB6A9A0D032313400133F9
:105060007B62374BDA6880235B0213401AD0BB6A3D
:10507000BB610023FB61354A0023B869F969FBF77E
:1050800033FA02000B00100019007B6A3B61002319
:105090007B613A697B69FBF707FA02000B0013009A
:1050A0007B6337E0264B1B68102213401AD0BB6A83
:1050B000BB600023FB60234A0023B868F968FBF754
:1050C00013FA02000B00100019007B6A3B600023FA
:1050D0007B603A687B68FBF7E7F902000B0013007E
:1050E0007B6317E0BB6A180000231900164A0023EF
:1050F000FBF7FAF902000B00100019007B6A1C0094
:1051000000231D0022002B00FBF7CEF902000B004C
:1051100013007B637B6B3B630DE0094B5B685B0BB0
:10512000072213403B623B6A0133802212029A40FD
:1051300013003B63C0463B6B1800BD460EB0B0BDCC
:105140000010024000093D000024F40000127A0023
:10515000C096000880B500AF024B1B681800BD4622
:1051600080BDC0460400002080B500AFFFF7F2FF0D
:105170000100064BDB681B0A07221340044AD35C7C
:10518000D9400B001800BD4680BDC046001002404B
:10519000B896000880B500AFFFF7DCFF0100064BB2
:1051A000DB68DB0A07221340044AD35CD9400B00BA
:1051B0001800BD4680BDC04600100240B8960008E9
:1051C00080B586B000AF78601723FB1800221A70F4
:1051D0007B681B682022134006D17B681A688023F5
:1051E0001B01134000D1D9E0A44B9A6B80235B05CF
:1051F00013400AD1A14B9A6BA04B802149050A4369
:105200009A631723FB1801221A709D4B1A6880239A
:105210005B0013401AD19A4B1A68994B80214900C0
:105220000A431A60FEF71AFA03003B6108E0FEF732
:1052300015FA02003B69D31A642B01D9032318E144
:105240008F4B1A6880235B001340F0D08B4B1A6899
:10525000C0239B031340FB607B685A68C0239B03F9
:105260001340FA689A4207D17B689A68C0239B036F
:105270001340FA689A4213D07B685A68C0239B0295
:105280001A40C0239B029A420AD17C4B1A688023A1
:105290009B021A4080239B029A4201D10123E8E03D
:1052A000764B1A6DC0239B021340FB60FB68002BFA
:1052B00049D07B685A68C0239B021340FA689A421F
:1052C00004D07B681B68202213400DD17B689A684C
:1052D000C0239B021340FA689A4234D07B681A6854
:1052E00080231B0113402ED0644B1B6D654A134075
:1052F000FB60624B1A6D614B802109030A431A65FA
:105300005E4B1A6D5D4B60490A401A655B4BFA684B
:105310001A65FA6880235B00134014D0FEF79EF9EB
:1053200003003B6109E0FEF799F902003B69D31ADB
:10533000564A934201D903239BE0504B1A6D8023B8
:105340009B001340EFD07B685A68C0239B021A4031
:10535000C0239B029A420CD1484B1B684C4A134015
:1053600019007B685A68C0239B031A40434B0A43C9
:105370001A60424B196D7B685A68C0239B021A4021
:105380003E4B0A431A651723FB181B78012B05D1E6
:105390003A4B9A6B394B3F490A409A637B681B68CA
:1053A0000122134009D0354BDB6C032293431900D3
:1053B0007B68DA68314B0A43DA647B681B68022237
:1053C000134009D02D4BDB6C0C22934319007B68F2
:1053D0001A692A4B0A43DA647B681B68042213406B
:1053E00009D0264BDB6C2C4A134019007B685A69A4
:1053F000224B0A43DA647B681B680822134009D0F9
:105400001E4BDB6C254A134019007B689A691B4BC5
:105410000A43DA647B681A6880235B00134009D072
:10542000164BDB6C174A134019007B68DA69134B83
:105430000A43DA647B681B684022134009D00F4B93
:10544000DB6C174A134019007B685A6A0B4B0A43FE
:10545000DA647B681B688022134009D0074BDB6C41
:10546000104A134019007B681A6A044B0A43DA6435
:1054700000231800BD4606B080BDC04600100240A3
:1054800000700040FFFFFCFFFFFFF7FF88130000E4
:10549000FFFFCFFFFFFFFFEFFFF3FFFFFFCFFFFF98
:1054A000FFFFFFFBFFFFF3FF80B582B000AF786026
:1054B0007B68002B01D1012332E07B6839229B5CA1
:1054C000DBB2002B07D17B683822002199547B681E
:1054D0001800FDF785FF7B683922022199547B680B
:1054E0001A687B6804331900100000F09DF97B688E
:1054F0003E22012199547B683A22012199547B680C
:105500003B22012199547B683C22012199547B68FC
:105510003D22012199547B683922012199540023AD
:105520001800BD4602B080BD80B584B000AF786081
:105530007B6839229B5CDBB2012B01D001233BE06D
:105540007B683922022199547B681B68DA687B6882
:105550001B6801210A43DA607B681A688023DB0537
:105560009A420ED07B681B68154A934209D07B682B
:105570001B68144A934204D07B681B68124A93420A
:1055800011D17B681B689B6807221340FB60FB6896
:10559000062B10D07B681B681A687B681B6801218A
:1055A0000A431A6007E07B681B681A687B681B68FF
:1055B00001210A431A6000231800BD4604B080BDD3
:1055C00000040040000801400014014080B582B092
:1055D00000AF78607B681B68DA687B681B68012114
:1055E0008A43DA607B681B681B6A0A4A134007D14A
:1055F0007B681B681A687B681B6801218A431A60F4
:105600007B6839220121995400231800BD4602B05D
:1056100080BDC0461111000080B582B000AF786037
:105620007B681B681B6902221340022B24D17B6814
:105630001B68DB6802221340022B1DD17B681B68AC
:10564000032252421A617B6801221A767B681B682A
:105650009B690322134004D07B68180000F0CCF84B
:1056600007E07B68180000F0BFF87B68180000F0C6
:10567000CBF87B6800221A767B681B681B690422C2
:105680001340042B25D17B681B68DB680422134080
:10569000042B1ED17B681B68052252421A617B686D
:1056A00002221A767B681B689A69C0239B0013400C
:1056B00004D07B68180000F09FF807E07B681800B2
:1056C00000F092F87B68180000F09EF87B680022DA
:1056D0001A767B681B681B6908221340082B24D1AB
:1056E0007B681B68DB6808221340082B1DD17B6890
:1056F0001B68092252421A617B6804221A767B6871
:105700001B68DB690322134004D07B68180000F09B
:1057100073F807E07B68180000F066F87B681800F3
:1057200000F072F87B6800221A767B681B681B69A0
:1057300010221340102B25D17B681B68DB681022D8
:105740001340102B1ED17B681B68112252421A6134
:105750007B6808221A767B681B68DA69C0239B0085
:10576000134004D07B68180000F046F807E07B681F
:10577000180000F039F87B68180000F045F87B68E5
:1057800000221A767B681B681B6901221340012BDB
:105790000FD17B681B68DB6801221340012B08D105
:1057A0007B681B68022252421A617B681800FDF771
:1057B00093FC7B681B681B6940221340402B0FD170
:1057C0007B681B68DB6840221340402B08D17B6854
:1057D0001B68412252421A617B68180000F01CF8D5
:1057E000C046BD4602B080BD80B582B000AF7860D3
:1057F000C046BD4602B080BD80B582B000AF7860C3
:10580000C046BD4602B080BD80B582B000AF7860B2
:10581000C046BD4602B080BD80B582B000AF7860A2
:10582000C046BD4602B080BD80B584B000AF786090
:1058300039607B681B68FB607A688023DB059A42CD
:105840000BD07B68234A934207D07B68224A93425D
:1058500003D07B68214A934208D1FB6870229343AE
:10586000FB603B685B68FA681343FB607A688023DF
:10587000DB059A420BD07B68164A934207D07B68BF
:10588000154A934203D07B68144A934208D1FB68BF
:10589000134A1340FB603B68DB68FA681343FB6004
:1058A000FB68802293431A003B681B691343FB602B
:1058B0007B68FA681A603B689A687B68DA623B68C2
:1058C0001A687B689A627B6801225A61C046BD46AD
:1058D00004B080BD000400400008014000140140F5
:1058E000FFFCFFFF80B584B000AF786039607B6853
:1058F00038229B5C012B01D1022347E07B683822D0
:10590000012199547B683922022199547B681B68D4
:105910005B68FB607B681B689B68BB60FB687022F0
:105920009343FB603B681B68FA681343FB607B682A
:105930001B68FA685A607B681A688023DB059A4204
:105940000ED07B681B68134A934209D07B681B68A2
:10595000114A934204D07B681B68104A93420CD1D1
:10596000BB6880229343BB603B685B68BA681343A3
:10597000BB607B681B68BA689A607B68392201212A
:1059800099547B6838220021995400231800BD46A1
:1059900004B080BD00040040000801400014014034
:1059A00080B582B000AF78607B68002B01D1012305
:1059B00044E07B689B6F002B07D17B687422002139
:1059C00099547B681800FDF775FD7B6824229A675F
:1059D0007B681B681A687B681B6801218A431A6010
:1059E0007B68180000F0C6F90300012B01D10123E8
:1059F00024E07B685B6A002B03D07B68180000F012
:105A000077FC7B681B685A687B681B680D490A40F5
:105A10005A607B681B689A687B681B682A218A43E6
:105A20009A607B681B681A687B681B6801210A43BF
:105A30001A607B68180000F00FFD03001800BD46D7
:105A400002B080BDFFB7FFFF80B58AB002AFF8603B
:105A5000B9603B60BB1D1A80FB689B6F202B00D098
:105A600095E0BB68002B03D0BB1D1B88002B01D128
:105A700001238DE0FB689A6880235B019A4209D17B
:105A8000FB681B69002B05D1BB680122134001D0C4
:105A900001237DE0FB6874229B5C012B01D1022372
:105AA00076E0FB68742201219954FB688022002172
:105AB0009950FB6821229A67FDF7D0FD03007B61B6
:105AC000FB68BA1D502112885A52FB68BA1D522138
:105AD00012885A52FB689A6880235B019A4208D167
