:020000040800F2
:100000000050002031250008BD220008BF22000852
:1000100000000000000000000000000000000000E0
:10002000000000000000000000000000C1220008E5
:100030000000000000000000C3220008C5220008E4
:1000400081250008812500088125000881250008F8
:1000500081250008812500088125000881250008E8
:1000600081250008812500088125000881250008D8
:1000700081250008812500088125000881250008C8
:1000800081250008CD220008DD22000800000000C4
:1000900081250008812500088125000881250008A8
:1000A0008125000881250008812500088125000898
:1000B0008125000881250008812500088125000888
:1000C00010B5064C2378002B07D1054B002B02D02E
:1000D000044800E000BF0123237010BD740000201D
:1000E0000000000064490008044B10B5002B03D049
:1000F0000349044800E000BF10BDC04600000000F6
:1001000078000020644900080023C25C0133002A03
:10011000FBD1581E7047000002B4714649084900DF
:10012000095649008E4402BC7047C04603B471466C
:10013000490840004900095E49008E4403BC7047ED
:10014000002243088B4274D303098B425FD3030A16
:100150008B4244D3030B8B4228D3030C8B420DD329
:10016000FF22090212BA030C8B4202D312120902B7
:1001700065D0030B8B4219D300E0090AC30B8B42F5
:1001800001D3CB03C01A5241830B8B4201D38B03A3
:10019000C01A5241430B8B4201D34B03C01A524148
:1001A000030B8B4201D30B03C01A5241C30A8B428B
:1001B00001D3CB02C01A5241830A8B4201D38B0276
:1001C000C01A5241430A8B4201D34B02C01A52411A
:1001D000030A8B4201D30B02C01A5241CDD2C3098C
:1001E0008B4201D3CB01C01A524183098B4201D308
:1001F0008B01C01A524143098B4201D34B01C01AF3
:10020000524103098B4201D30B01C01A5241C3086A
:100210008B4201D3CB00C01A524183088B4201D3D9
:100220008B00C01A524143088B4201D34B00C01AC5
:100230005241411A00D20146524110467047FFE731
:1002400001B5002000F006F802BDC0460029F7D035
:1002500076E770477047C046002B11D1002A0FD1B6
:10026000002900D1002802D00021C943081C07B48E
:10027000024802A14018029003BDC046D9FFFFFF0B
:1002800003B4684601B5029800F04CF8019B9E4605
:1002900002B00CBC7047C046F0B515042D0C0F0021
:1002A00001002E00C64684460004140C000C090C04
:1002B00046434D43604361434019340C241800B554
:1002C000A54203D98020400280464144250C6D1888
:1002D000614659437A43300449192404000C20181C
:1002E000891880BCB846F0BD70B500220C4B0400E4
:1002F0000D0001F033FB002804D12000290001F09B
:10030000C3F970BD064B00222000290000F02AFE30
:1003100001F0BAF980231B069C466044F1E7C04611
:100320000000E041F0B557464E464546DE46E0B592
:1003300004000D009246994683B08B4230D82DD0F0
:100340004946504601F032FB29000600200001F02A
:100350002DFB331A9846203B9B4633D45A465346CE
:10036000934042461F00534693401E00AF423AD886
:10037000AF4200D178E05B46A41BBD41002B00DA00
:1003800075E0002200230092019301235A46934016
:100390000193012342469340009328E08242CFD943
:1003A00000220023009201930C9B002B01D01C60C3
:1003B0005D600098019903B0F0BCBB46B246A94607
:1003C000A046F0BD424620239B1A5246DA404146E1
:1003D00013004A468A40170042461F435346934043
:1003E0001E00AF42C4D9002200230092019343466D
:1003F000002BD9D0FB0772081A4346467B080EE053
:10040000AB4201D1A2420CD8A41A9D41012024196B
:100410006D410021013E24184D41002E06D0AB4213
:10042000EED9013E24196D41002EF8D100980199B2
:100430005B4600196941002B24DB2B005A464446D9
:10044000D3402A00E2401C005B461500002B2ADB4B
:1004500026009E40330026004746BE403200801AE8
:100460009941009001919FE7A342BCD883E742469F
:10047000202300219B1A0022009101920122DA40E0
:10048000019286E7424620239B1A2A0046469A405C
:100490002300F340444613432A00E2401C005B461D
:1004A0001500002BD4DA42462F0020232600974067
:1004B0009B1ADE403B003343CDE7C046F0B55746BC
:1004C0004E464546DE46E0B5814605000C03480031
:1004D00092461F0085B0240B400DCE0F002859D046
:1004E000874B984200D198E06B0FE4001C438023B7
:1004F0001B0423439846834BED009B4600239946FB
:10050000834400933C037B005046240B5B0DFF0F9C
:10051000002B67D07A4A934218D07A49420F8C4612
:10052000E40059461443802263441204CB1A144356
:100530009B46C200002033007B409A464B460F2B5F
:1005400000D9EFE070499B00CB589F466F4B524655
:100550009C462243E344002A00D095E0494602230A
:100560001943894600240220E5E7002300240025E2
:1005700052461B052343D20713432800190005B038
:10058000F0BCBB46B246A946A046F0BD00240025FB
:100590005B4BEDE74B462343984600D189E0002CA6
:1005A00000D1E0E1200001F0E3F9010002000B3985
:1005B0001D235B1A49461000D940083884400B00BF
:1005C0004D4623439846854051483C03831A9B4639
:1005D0000023994600937B005046240B5B0DFF0FD0
:1005E000002B97D15246224355D0002C00D1CAE1AE
:1005F000200001F0BDF902000B3A1D2301009B1AF7
:1006000052460839DA408C40144352468A40414BE6
:1006100058449B46834400208DE74B46234398462D
:1006200040D108239946063B00258346009369E79D
:10063000B246009B022BA9D0032B00D111E2012B63
:1006400093D0354A5A44002A00DC3CE16B0700D0C5
:10065000A7E1ED084346DB0106D542462F4B1A4081
:1006600090468022D2005A442D4B9A428EDC43465B
:10067000520558075C020543240B530D78E7BA4630
:10068000A04615000090D4E74A4603231A4391463A
:10069000032052464FE74946012319438946002467
:1006A000012048E70C239946093BA0468346009366
:1006B00028E70423994600239B4601330025009335
:1006C00020E7002380249A4600250D4B24034FE7A2
:1006D000802341461B03194208D01C4206D11C430B
:1006E0002403BA461500064B240B41E780244346F9
:1006F00024031C432403B246014B240B38E7C046B5
:10070000FF07000001FCFFFF7C49000801F8FFFF24
:100710000DFCFFFFF3030000FF030000FFFFFFFEDF
:10072000FE070000444500D216E100D111E101238B
:100730005B429C462E0040460025E3442302140EF3
:100740001C431B0C994623041F0C120249460092BD
:100750000197FFF77BFD02007A430B04310C8046C2
:1007600019438A420BD901235B429C460919E04494
:100770008C4204D88A4202D9831E98460919881AE5
:100780004946FFF763FD09048C4631046646019A29
:10079000090C4243030031438A4204D90919013B41
:1007A0008C4200D811E1891A4246009E12041A4375
:1007B000330C1F00100C9046029313043204160CE5
:1007C00032001B0C5A4303967B4346437843170C75
:1007D000BC469B1963449E4203D980267602B446E8
:1007E00060441E0C301816041B04360C9E198142FE
:1007F00000D29CE000D197E0AE1B091AB5428041BF
:100800004042081A844200D111E14946FFF71EFD1B
:10081000019A0B044243310C050019438A4207D95F
:100820000919013D8C4203D88A4201D9851E091954
:10083000881A4946FFF70AFD09048C4631046646CA
:10084000019A090C4243030031438A4207D909192E
:10085000013B8C4203D88A4201D9831E0919039EA9
:10086000891A32002D041D43029F2B041B0C5A438E
:100870007B439C46280C4643130CB44463447843A2
:100880009E4203D980267602B44660441E0C1204B0
:100890001B04120C30189B18814206D302D001238E
:1008A0001D43CEE6002B00D1CBE661186E1EA1429F
:1008B00000D2A4E0814200D2C9E000D1D9E03500E5
:1008C000EDE701256D420121891A382900DD4CE64A
:1008D0001F2900DC7FE01F235B429A1A4346D34066
:1008E000202904D04446654A5A44944025436A1E50
:1008F000954107222B43150000241D401A4200D1C8
:10090000A1E00F2200241A40042A00D198E01A1D09
:100910009A429B415B42E4181300220200D48FE00C
:1009200001230024002523E6B54200D364E74346B3
:100930005A1E009B9C4665441F009D429B415B42A2
:100940001B19C9188C423AD2884263D860D09046AD
:1009500052E7AA4200D9EAE64346DE0758086B0888
:100960001E43ED07EAE6484601F002F801000200E6
:10097000153120321C2900DC1AE64B46083883402A
:100980000025984620E600F0F3FF03001A00153218
:1009900020301C2A00DC30E65446083B00229C40F4
:1009A00035E60F232B40042B00D152E605235B4292
:1009B000AB429B4104355B42ED0898444AE68C42C9
:1009C000C5D1AF42C0D9904616E78A4200D8EAE6C0
:1009D000831E0919E7E62A4A28005A4443469540EF
:1009E0009340C8406A1E9541444603432B43CC4084
:1009F0005A0792D00F221A40042A88D18DE7350079
:100A0000814200D04BE7009A934200D047E718E6B6
:100A1000AE429CD902235B429C46009BE0449C462C
:100A200065449D429B415B421B19C918E4E6154A87
:100A30005A44002A00DC44E701230025984409E6D3
:100A400065076402240BDB081D43002390E5009E2C
:100A5000023D7200B242BF417F423C190919009227
:100A6000CEE78024434624031C432403064B240B77
:100A70007EE5009A9A42EAD33500C4E73E040000BE
:100A80001E040000FF030000FF070000F0B55746FA
:100A90004E464546DE46E0B598460C034B00060040
:100AA000924687B0240B5B0DCF0F002B6CD0DD4A34
:100AB000934200D186E0420FE400144380221204E6
:100AC0001443D94AC50094466344009300239946D1
:100AD0009B46434642461E03D20F5B00504690465B
:100AE000360B5B0D00D178E0CE4A93421DD0CE4943
:100AF000420F8C4600996344F6008C4616438022D0
:100B00009C44120463461643C200002000930099DF
:100B1000434601318C4649467B4001930F2900D959
:100B20007EE0C24B890059588F465246009B3243A3
:100B300000D056E1BB4900268C46634449460093E9
:100B40000223194389460220E1E74346019334001A
:100B5000150083465B46022B5ED0032B00D1F3E1E8
:100B6000012B00D018E1002200240025019B120572
:100B70002243DB071A432800110007B0F0BCBB4634
:100B8000B246A946A046F0BD2500054300D141E18B
:100B9000002C00D1ADE1200000F0EAFE01000200CF
:100BA0000B391D2310005B1A3100350008388440D2
:100BB000D94085400C439E48831A009300239946F0
:100BC0009B4686E70500254300D01CE108220093E0
:100BD0000223002491469B467BE75246324300D1D4
:100BE0000AE1002E00D176E1300000F0C1FE0200E3
:100BF0000B3A1D2301009B1A52460839DA408E40F9
:100C0000164352468A40009B8949181A03008C46B5
:100C10006344002000937AE700240025814AA5E779
:100C20002F0C2D042D0C2B00110C1204120C53430D
:100C30009846130028007B4399464843484483461E
:100C400040460B00000C824658467B4350440293BA
:100C5000814506D99A4680235B029946CA44534689
:100C60000293030C9B4643461B0400041B0C98464E
:100C7000030043440493330C99462B003604360C8E
:100C80007343984633007B439A464B465D435F432C
:100C900043465544180C4019824503D980235B0212
:100CA0009A465744050CEB19059343461D042D0C39
:100CB00000044019250C2404240C270057436A43E0
:100CC00090462A003B0C9A464A43614341445144B2
:100CD0008344884503D980235B02984642443F04FD
:100CE0000B0C3F0C0904C919270098464B46774363
:100CF0005C436E435D433B0C9946A4194C4442440B
:100D00000395A64204D980235B0298464544039587
:100D1000029B3F045B441E008342804123049846AB
:100D2000059B3F0C4744984676188E4289414744BC
:100D300040423D18A846934649428A46C3449F42D2
:100D4000BF4180458041039BDA4498465346404268
:100D50007F420743240C934592418A4589413F19BC
:100D6000DC0D049B75021D43681E854153465242AB
:100D700049420A43BF184744F60D7F0235435A02E1
:100D80003C431543FB0100D4C1E001216A080D403A
:100D90001543E2071543640826496144002956DDDE
:100DA0006B0709D00F222A40042A05D02A1DAA4227
:100DB000AD416D4264191500E30104D580211E4A3E
:100DC000C900144061441D4A914200DD24E76207D6
:100DD000ED08640249051543240B4A0DC6E6019748
:100DE000B8E6104A0320944663444A46009303231E
:100DF0001A43914652468AE64946012319438946D9
:100E00000026012083E60C2200930323050091466F
:100E10009B465EE604239946002300930133002499
:100E20009B4656E6FF07000001FCFFFFBC49000897
:100E30000DFCFFFFFF030000FFFFFFFEFE070000A9
:100E4000002380240025444A019324038EE60120D8
:100E5000401A382800DD86E61F285BDD1F222300AC
:100E60005242511ACB401900202803D03B4A624419
:100E7000944025436A1E95412A000A4307210D002C
:100E80000024154011425BD00F2100241140042999
:100E900053D0111D914292415242A4180A002302DC
:100EA0004BD501220024002560E680231B031C4251
:100EB00009D01E4207D133431C0343461500240BBF
:100EC000254A019352E68022120314432403224A46
:100ED000240B01974AE600F04BFD03001A0015327F
:100EE00020301C2A00DC84E65646083B00229E4047
:100EF00089E600F03DFD01000200153120321C2979
:100F000000DC4EE6340008380025844053E6009BA0
:100F10009C4641E71249220061442E008D408A40E0
:100F2000C640691E8D4132432A43C4405307B6D0A0
:100F30000F2111400429ACD1B1E765076402240BED
:100F4000D2081543002211E6802212031443240321
:100F5000014A240B0AE6C046FF0700003E040000D9
:100F60001E040000F8B557464E464546DE460400CE
:100F7000E0B51F0010000B03620F4E00CD0F5B0A9F
:100F800039031343490AE200440F2143C24C9146FE
:100F90009246C0007A008046760D520DFF0FA242A5
:100FA00000D1B4E001246740BB46BD4200D188E0D7
:100FB000B41AA446002C00DCB2E0002A00D1C5E03F
:100FC000B54A964200D18BE2802212041143624658
:100FD000382A00DDA1E11F2A00DD16E220270C00DF
:100FE000BF1ABC400200A0466446B840E2404446F6
:100FF00014430200501E82416046C14022435B1AE6
:1010000049468C1AA145924152429B1A9846434642
:101010001B0200D417E143465B025B0A9846434635
:10102000002B00D16CE1404600F0A2FC0200083A1F
:10103000202120004346891A9340C840944003432E
:10104000964200DD57E1961B711C1F2900DDCBE1A4
:10105000202218002600521A94409040CE40CB40E7
:10106000621E94413043984600260443630709D02A
:101070000F232340042B05D0231DA342A441644227
:10108000A0441C0043461B0200D4DFE0824B013623
:101090009E4200D1FBE04246804BE4081A40130018
:1010A000710552075B0222431B0B490D0905ED0731
:1010B000194329431000F0BCBB46B246A946A046DE
:1010C000F8BDB41AA446002C58DD002A00D19EE0D9
:1010D000714A964200D13BE18022120411436246DC
:1010E000382A00DDC1E01F2A00DCBBE10C00203AF9
:1010F000D44022006446202C04D040273F1BB94036
:10110000084380464446611E8C411443B1E00C0004
:1011100004432AD0BB46BD422DD0614CA446B44402
:101120006446002C5CD0941BA446002E00D015E130
:101130004D461D4300D1C3E1651E012C00D10CE2D8
:10114000554EB44200D1F8E1AC460EE10A0002432C
:1011500000D136E12200013A012C00D1C6E14E4C0B
:10116000A44500D1F4E0944631E701246740BB4632
:10117000BD4200D01CE74A4CA446B4446446002C4F
:1011800000D1CFE0941BA446002E00D15CE1424E7A
:10119000B24200D1ECE18026360433436446382C59
:1011A00000DDB3E11F2C00DD38E22026361B1C00D9
:1011B000B4404F46A0466446E74044463C434F4651
:1011C000B7403E00771EBE4134436646F340C9181F
:1011D000241884429B415B429846160088444EE0A6
:1011E000304A741C144200D0D6E04A461A43002EFE
:1011F00000D05BE1002A00D1A5E10A00024300D043
:10120000BBE14A465907D2080A43DB0827E00A0037
:10121000024300D174E12200013A012C05D01E4C9A
:10122000A44500D194E0944659E74844484592418A
:101230005B189846040052429044434602261B0223
:1012400000D5C4E0013E630700D011E74346B44631
:101250005907E2080A43DB080F498C4540D0614634
:101260001B0349051B0B490D20E701430C00611EC0
:101270008C414C444C4592415242904698444346DE
:101280001B02E0D5044B01369E4200D09FE03100A6
:10129000002300220AE7C046FF070000FFFF7FFF90
:1012A00001F8FFFFFE070000002A00D160E10A00FC
:1012B00002434DD04A465C07D20822438024DB0813
:1012C0002403234207D0CE08264204D15D463300D2
:1012D000C20849070A43510FD200D20849070A43FE
:1012E0001100194300D1C8E1802109030B431B03FE
:1012F000D5491B0BDAE6D549B61A0B409846B5E638
:10130000200000F035FB020018321F2A00DC8FE6B7
:10131000230008388340002492E608430200501E50
:1013200082416DE6CA4C721C224200D0ADE04A46B2
:101330001A43002EB8D1002A00D158E10A00024316
:1013400000D059E14A465907D2080A43DB0886E72C
:101350004A465907D2080A43DB08C1E7BA4DAA42F8
:1013600000D11EE180252D042B436446382C5DDC22
:101370001F2C00DDD0E0202567462D1B4E461C00AB
:10138000FE40AC4034434E46AE403500FB406E1E3E
:10139000B541C91A2C434EE04A46141AA145924160
:1013A000524290465F1A3A004746D21B90461202BC
:1013B00000D58BE04246224300D030E600230025D2
:1013C0004DE74A465907D2080A43DB0844E742463C
:1013D0009E4B61081A401300012214400C43DA07A7
:1013E0005B089846144341E61A001F3EF24016007F
:1013F000202903D04022511A8B401C43621E944185
:1014000000233443984600261DE70C00203AD440C0
:1014100022006446202C04D040273F1BB9400843DB
:1014200080464446611E8C412243E9E54C462343F5
:101430001C00631E9C41041BA0429B415B42CB1AD3
:1014400098465D461600E2E54E461E4300D1AEE0EA
:10145000661E012C00D1FDE07B4FBC4200D107E1AC
:10146000B4469BE664462022121B0C009440070001
:101470009040A0466446421E90416246E740444682
:10148000D1403C4304435B18F3E66F4CA24200D1C9
:10149000D5E048445B184845894149425B18DC0760
:1014A00040085B08984616000443CCE6002A00D0AA
:1014B00082E00A00024340D1802300251B0313E78A
:1014C0004B07C2081A435D46CB08C5E64A46841A54
:1014D000A0429241CB1A52429B1A98465D469EE525
:1014E0004A465907D2080A43DB08F9E64A46141A65
:1014F000A14592415B1A52429B1A9846012686E505
:101500004A465907D2080A43DB08A5E64C4623435E
:101510001C00631E9C415BE665461E00203DEE40BC
:10152000202C05D040252D1BAB404C461C43A24629
:101530005446631E9C4134437DE74B07C2081A435F
:101540005D46CB08CCE60A00024300D136E74B07E4
:10155000C2081A435D46CB0881E64A46841AA04277
:101560009241CB1A52429B1A98465D4601264EE59F
:101570004B07C2081A43CB08B2E64A46141AA145E3
:1015800092415F1A5242BA1A904612026BD54A46ED
:10159000841AA0429241CB1A52429B1A98465D4649
:1015A00064E54B07C2081A435D46CB0898E64B0733
:1015B000C2081A43CB084FE60A00024390D04A46BD
:1015C0005C07D20814438022DB081203134208D0C0
:1015D000CE08164205D1C0084907084304005D46FD
:1015E0003300610FE2004907D2080A4378E64B074F
:1015F000C2081A43CB0832E648445B18484592417A
:10160000984652429044434604001B0200D41AE616
:1016100042460E4B01261A40904614E666461F00CD
:10162000203EF740202C05D04026361BB3404C46C8
:101630001C43A2465446631E9C413C43C8E511002E
:101640000023002232E5C046FF070000FFFF7FFFB6
:10165000FE0700004A461418844292415B189846DF
:1016600052429044E9E54246224300D1A6E6EAE52B
:101670004B07C2081A43CB0832E600220149130087
:1016800014E5C046FF0700000A0030B5134C5300B4
:1016900009030500090B00205B0DD20FA34204DDF6
:1016A0000F48834202DD0F4BD01830BD802040032D
:1016B00001430D48C01A1F2808DD0C48C31AD94041
:1016C0000B005842002AF0D11800EEE7084CC54044
:1016D000A446634499400B002B43F2E7FE0300004D
:1016E0001D040000FFFFFF7F33040000130400000F
:1016F000EDFBFFFF70B5002816D0C317C5185D407D
:10170000C40F280000F034F9114A121A0A2816DC16
:1017100003002E0015339E400B23181AC5405305B5
:101720002D032D0B5B0D03E0002400230025002674
:101730001B052B43E40723433000190070BD0B3811
:10174000854053052D0300262D0B5B0DF0E7C046A9
:101750001E04000070B543004602C40FFE201B0E9D
:10176000591C750A08420CD0E022920094466D077D
:10177000360B63441B053343E40723432800190059
:1017800070BD002B14D1002D1BD0280000F0F0F804
:101790000A281CDC0B232A001B1ADA40030015332D
:1017A0009D400E4B12031B1A5B05160B5B0DE1E708
:1017B000002D09D0320B80263603094B6D071643E6
:1017C000D8E700230026D5E70026054BD2E7030023
:1017D0002A000B3B9A400025E3E7C046890300003E
:1017E000FF07000002004B00F0B508035B0D3D4E03
:1017F000CC0F400A510F5F1C0843D50037420AD076
:1018000039495E18FE2E16DDFF230021DB050B4350
:10181000E0071843F0BD002B06D1284327D005214F
:101820008901490ADBB2F1E70543EDD08021C90304
:10183000FF230143EAE7002E1CDD920111004A1E3E
:101840009141C0006D0F014329434B0748D00F233E
:101850000B40042B00D004318023DB040B403FD02D
:10186000721CFE2ED0D08901490AD3B2CEE70023E4
:101870000021CBE73200173222DB80211E2209042F
:101880000843921B1F2A1DDD022149428E1B0100C5
:10189000F1400E00202A04D0144A94466344984034
:1018A000054329004D1EA941314300264B07CED1E7
:1018B00080200B00C004012203400142D3D1AFE7D6
:1018C0000023ACE70A498C4629006344D1409D407F
:1018D0000A00290098404D1EA94101431143E4E745
:1018E00033009DE7FE07000080FCFFFFA2FCFFFF26
:1018F00082FCFFFF8446101C62468C46191C63461E
:1019000000E0C0461FB500F00BF9002801D400210B
:10191000C8421FBD10B500F055F84042013010BD5F
:1019200010B500F0FDF8002801DB002010BD0120FB
:1019300010BDC04610B500F0F3F8002801DD00200E
:1019400010BD012010BDC04610B500F077F800288A
:1019500001DC002010BD012010BDC04610B500F014
:101960006DF8002801DA002010BD012010BDC0462E
:101970001C2101231B04984201D3000C10391B0ABF
:10198000984201D3000A08391B09984201D3000983
:10199000043902A2105C40187047C04604030202DA
:1019A00001010101000000000000000010B5002945
:1019B00003D1FFF7DDFF203002E0081CFFF7D8FF5E
:1019C00010BDC046F0B54F464646D64694469146B1
:1019D0001A03120B184DC0B54C000F0392465A0063
:1019E000060080463F0B0120640DC90F520DDB0F2E
:1019F000AC420AD0AA4203D0944201D157450DD03F
:101A0000E0BCBA46B146A846F0BD3D003543F7D12B
:101A1000A242F5D1524665462A43F1D10120C8457C
:101A2000EED1994206D0002CEAD13E433000461E4A
:101A3000B041E5E70020E3E7FF070000F0B54E46C0
:101A400045465746DE4604001800E0B516001B0365
:101A50001B0B324D0F034A0099464300A446B04683
:101A60003F0B520DC90F5B0DC00FAA4229D0AB42EC
:101A700018D0002A2AD13C43A34665426541002B79
:101A800002D14C46264327D0002D15D1814228D0C3
:101A90000220013908400138F0BCBB46B246A946D5
:101AA000A046F0BD4D462E432FD1002AEED13C4337
:101AB00065426541002DE9D00028EDD1012040426A
:101AC000EAE73D00254320D19342EBD0002BDDD146
:101AD0004C462643DAD1DBE75B460020002BDBD007
:101AE000D6E79A420ADCE7DB4F45D1D810D0002078
:101AF0004F45D1D20029E1D00800CDE743425841FB
:101B00000223404218400138C6E702204042C3E7A2
:101B1000C445BDD80020C445BED2EBE7FF07000096
:101B2000F0B54E4645465746DE4604001800E0B57F
:101B300016001B031B0B314D0F034A00994643004F
:101B4000A446B0463F0B520DC90F5B0DC00FAA4211
:101B500011D0AB4214D0002A2FD13C43A34665429A
:101B60006541002B14D14C46264311D15B46002021
:101B7000002B17D010E03D00254312D193421CD119
:101B80004D462E430DD1002A04D13C4365426541A8
:101B9000002D0DD1814216D00220013908400138B4
:101BA00000E00220F0BCBB46B246A946A046F0BD0C
:101BB0000028F7D101204042F4E7002BEAD14C463F
:101BC0002643E7D1E8E79A4206DD43425841022323
:101BD000404218400138E5E79A42E9DB4F45DBD83F
:101BE00006D000204F45DDD20029E3D00800D9E718
:101BF000C445D1D80020C445D4D2F5E7FF07000082
:101C0000154B9A600122186019711A731349144B0D
:101C100014485980144958815960BC2113481972DD
:101C2000D8601348AE32588212481A705861124870
:101C30001A74588311481A76D861581CC177104914
:101C4000598410495962190028310A700E4A5A8580
:101C50000E4ADA627047C046E0000020010700002B
:101C60009000002001080000151D0008211D00083B
:101C700004070000751D0008020700007D1D000814
:101C800002080000951D000803070000311E00082F
:101C9000F0B51E4E87B0337B012B03D0012420000A
:101CA00007B0F0BD002303AF039304223900B368EB
:101CB000306802F00FF9041EF0D13B780193BB7835
:101CC0007D780093FA7804AF01320490B88039002F
:101CD000B3683068D2B202F0FDF80028DFD1009B73
:101CE0002D021D4306230A4A11780198814206D12C
:101CF0005188A94203D1380053689847CFE7013B88
:101D0000DBB20832002BEFD1C9E7C046E00000206B
:101D10009000002010B54178007800F0A5F810BDC3
:101D200010B503788CB0AA2B1DD1002301A8019314
:101D300000F0EAF80021242203A8029102F0DCF965
:101D40000198FFF707FD02000B0002A8074902F007
:101D5000DBF902A8FEF7D8F9054C82B2A368206827
:101D600002A902F045F80CB010BDC046FC490008BD
:101D7000E000002010B500F09FF810BD10B5040081
:101D80004178007800F070F8E178A07800F06CF805
:101D900010BD0000F0B5002104008BB0242201A882
:101DA000009102F0A9F92378AA2B1ED11B4E300016
:101DB00000F018F91A4F1B4D002812D1300061783D
:101DC00000F0F0F83900684602F0BEF96846FEF708
:101DD0009BF9694682B2AB68286802F009F80BB03B
:101DE000F0BD300000F0FAF8E8E7FF2BF7D10B4D1B
:101DF000280000F0F7F80B4C0B49012803D128000C
:101E000000F0ECF80949684602F09EF96846FEF7D2
:101E10007BF9694682B2A3682068DEE73C010020B6
:101E2000184A0008E0000020554A0008354A00081A
:101E300070B5002304000A4AE15CD1540133042B3D
:101E4000FAD1084D280000F0CDF8002804D1280070
:101E5000217900F0A7F870BD280000F0BFF8F6E780
:101E6000C00000207C0100200A0010B5012809D123
:101E7000012905D14021A020C00500F0DFFC10BDE4
:101E80000022F7E7022805D1012901D18021F2E7DC
:101E90000022FBE7032806D1012902D101210548D0
:101EA000EBE70022FAE7012901D10221F7E700223E
:101EB000FBE7C0460004005010B5A0240C48E40520
:101EC00000F08CF820000022402100F0B7FC200038
:101ED000084C0022802100F0B1FC200000220121EA
:101EE00000F0ACFC00220221200000F0A7FC10BD95
:101EF0007C01002000040050024B186019719A60A8
:101F00007047C046C400002030B585B000236A4643
:101F10001E4C9381A36821790093050001231C4A7C
:101F20002068490000F006FE002809D10D22A368B0
:101F3000217900932068012349006A4400F08CFE57
:101F4000A36821790093134A01232068490000F017
:101F5000F1FD002808D1A3682179009320680123AE
:101F6000490003AA00F078FE6B469889FFF7C2FB90
:101F70000022094BFEF78AFD084A094BFEF786FD51
:101F8000FFF730FC286005B030BDC046C40000201B
:101F90000100002000000020008853408DEDB5A016
:101FA000F7C6B03E10B504000800FFF7A3FB094ACE
:101FB000094BFEF783FAFEF797F902222368524293
:101FC0001A6100225A62D862E060200001F028FC09
:101FD00010BDC046FCA9F1D24D62503F10B501F0D2
:101FE0004FFC10BD03681868431E9841C0B270478B
:101FF000F0B58BB01422002105A802F07DF8042072
:10200000294B0125D96AA0260143D962DA6AF6056F
:1020100002400192019AD96A7C300143D9620221BF
:10202000DA6A224F02400292029ADA6A30002A43A8
:10203000DA62DA6A00242A400392039ADA6A0A43CF
:10204000DA62DB6A00220B400493BE31049B00F08D
:10205000F5FB00223800032100F0F0FB802305A9E6
:102060009B01134805930694079400F025FBC023B9
:10207000300005A9059306950794089400F01CFB11
:102080000323380005A9059306950794089400F0EA
:1020900013FB802330001B0105A9059306940794C8
:1020A00000F00AFB0BB0F0BD00100240000400502D
:1020B0000008005010B5134B134C01222360134B42
:1020C000200063600023E260A36023616361A36179
:1020D000E361236200F0D8FC002801D000F0DEF8B4
:1020E0000021200000F04AFE002801D000F0D6F8C0
:1020F0000021200000F068FE002801D000F0CEF89A
:1021000010BDC04600540040F00000200E09002021
:1021100010B5040086B01422002101A801F0ECFFE4
:10212000104B22689A421AD102210F4C0F48E26AE2
:102130000A43E262E36A03220B400093009BC02340
:102140000193AE3B029301A9113B039304920593C3
:1021500000F0B2FA8023A26B9B031343A36306B083
:1021600010BDC04600540040001002400004005062
:1021700000B59FB03022002112A801F0BDFF14224B
:10218000002101A801F0B8FF2822002106A801F0D3
:10219000B3FF1849184A0B6810A81A4080231B0186
:1021A00013430B600123109380235B0211930023E0
:1021B0001A9300F075FE011E01D072B6FEE70F23E0
:1021C0000390019304900D3B059001A8029301F048
:1021D000F3F8002801D072B6FEE7092309900C90AD
:1021E00006A8069301F0D6F9002801D072B6FEE7E2
:1021F0001FB000BD00700040FFE7FFFF10B58CB0BE
:1022000000F0E4F9FFF7B4FFFFF7F2FEFFF752FF2B
:1022100000F0C6F800F0ECF800F03AF901210220D5
:10222000FFF722FE142236211748FFF765FE6422CD
:1022300004211648FFF7E4FCFFF72AFD144B1A7837
:10224000012AF9D100241C70002301A80193FFF793
:102250005BFE2422210003A8029401F04DFF0198A7
:10226000FFF778FA02000B0002A80A4901F04CFFC0
:1022700002A8FDF749FF084C82B2A368206802A9B2
:1022800001F0B6FDD8E7C046F0000020BC010020F8
:10229000D1000020FC490008E000002072B6FEE7F3
:1022A0000122054B596B0A435A638022996B5205F0
:1022B0000A439A637047C04600100240FEE7FEE7FB
:1022C0007047704710B500F095F910BD10B5024881
:1022D00001F0EEFA10BDC0463C01002010B50248E6
:1022E00001F0E6FA10BDC0467C0100200368164AE2
:1022F00010B5934203D10122144B1A7010BD144A39
:102300009342FBD100210120FFF7AEFD0021022006
:10231000FFF7AAFD00210320FFF7A6FD00210420FE
:10232000FFF7A2FD0B4C0C4A23780121D05CC0B210
:10233000FFF79AFD23780133DBB2032B01D823701A
:10234000DCE70023FBE7C04600100040D10000207E
:1023500000140040D0000020C00000200B4A0C49AF
:102360000300891A0B4A10B51068002801D10A48E9
:1023700010601068C3188B4206D901F093FE0C233D
:1023800003600120404210BD1360FCE70004000020
:1023900000500020D40000205802002070470000A8
:1023A00037B5002508220021684601F0A5FE0D4C36
:1023B0000D4B200023600D4BA5606360E5606561F7
:1023C00001F00AFAA84201D0FFF768FF6946200031
:1023D0000095019501F0F4FA002801D0FFF75EFFA7
:1023E00037BDC0463C010020001000403F1F0000E8
:1023F00037B5002508220021684601F07DFE0D4C0E
:102400000D4B200023600D4BA5606360E5606561A6
:1024100001F0E2F9A84201D0FFF740FF6946200031
:102420000095019501F0CCFA002801D0FFF736FFA6
:1024300037BDC0467C010020001400403F1F000053
:102440000368104A10B593420DD110230E4A112093
:10245000916B0B4393630321002200F0DDF8112000
:1024600000F004F910BD094A9342FBD12023064A2B
:102470001220916B0B4393630321002200F0CCF8F0
:102480001220EDE700100040001002400014004050
:102490000D480E4B10B5036096239B01436000234B
:1024A0008360C36003618361C36103620833436275
:1024B00080230C221B024261436301F0C1FD00280E
:1024C00001D0FFF7EBFE10BDBC0100200038014039
:1024D00010B5040086B01422002101A801F00CFE02
:1024E000114B22689A421DD18022104BD201596BA8
:1024F000A0200A4301215A63DA6AC0050A43DA625E
:10250000DB6A0B400093009BC023DB000193022396
:10251000029300230393033304935B1801A90593EB
:1025200000F0CAF806B010BD0038014000100240AB
:102530000D4885460D480E490E4A002302E0D45846
:10254000C4500433C4188C42F9D30B4A0B4C0023FB
:1025500001E013600432A242FBD3FFF71FFF01F03A
:10256000A7FDFFF74BFEFEE7005000200000002013
:1025700074000020F04A000874000020540200207B
:10258000FEE7000070B50500FA200D4B80001978B9
:10259000FDF7D6FD0B4B01001868FDF7D1FD00F0EB
:1025A00071F804000120002C09D1032D07D802384E
:1025B0002200290000F030F82000034B1D6070BDA0
:1025C00008000020040000200C0000204023084ADE
:1025D00010B5116800200B431360FFF7D3FF041EF2
:1025E00003D1FFF75DFE200010BD0124FBE7C046CC
:1025F00000200240034A044B11681B785B181360EB
:102600007047C0464002002008000020014B1868B7
:102610007047C0464002002030B5FF2503242A0041
:102620000440E400A24089012940D243A140C3B242
:1026300000280ADBC0240B4B80088000C018A400CF
:1026400003591A401143015130BD0F200340083B8C
:1026500005489B089B001B18D86902401143D961AB
:10266000F2E7C04600E100E000ED00E0002805DBF5
:102670001F2318401E3B8340014A13607047C04629
:1026800000E100E08022431E5204012093420DD25B
:10269000C021074A07485360036A09061B021B0A48
:1026A0000B43036200200723906013607047C0460D
:1026B00010E000E000ED00E0584AF0B58218541E2A
:1026C000A241002387B0053205920A681400DC405D
:1026D00001D107B0F0BD01242500A4469D4014009F
:1026E0002C4002942A4200D196E003244A685E00FE
:1026F00001922240B440E4430394541E64452AD816
:102700008768039C2740CC68B4403C43674684609C
:102710004468AC432500019C24093C409C402C4368
:102720004460C568039C25408C68B4402C43C46059
:10273000022A12D1DC080725A4000419276A049490
:102740000F241D40AD00AC40A7430C69AC402743AB
:10275000049C276201E0032AE3D1B2400468039D90
:1027600025402A430260C022019C9202144253D0A9
:1027700001252B4CAC46626B03272A431D000F2614
:102780003D40AD00AE406263264A9C08A400A418F8
:10279000A268B243A0260392F6050022B04210D0F0
:1027A000214E6246B0420CD0204E9218B04208D062
:1027B0001F4E3A00B04204D01E4E6244B04200D0D8
:1027C000059AAA40039D019F2A43A2601A4A029CCF
:1027D0001668029DE4433543FF0301D435002540CC
:1027E00015605668029D019F3543BF0301D4350033
:1027F000254055609668029D019F3543FF0201D434
:10280000350025409560D568029E019F2E43BF028A
:1028100001D425402E00D660013356E700E4FFAF17
:102820000010024000000140000400500008005069
:10283000000C00500010005000040140002A01D09C
:10284000816170478162FCE703689A69920701D54C
:1028500000229A6201229969114202D199690A43C0
:102860009A61704730B5039C1204006822431A43F2
:10287000054B45688905640D890D1C43A5430A4332
:102880002A43426030BDC046FF63FF03F8B50368CA
:1028900016009A6904000D000020D20636D55A6849
:1028A000920104D480225968D2010A435A60202739
:1028B00023689A693A4212D010222000DA61DF615F
:1028C000FFF7C2FF2268124953680B40536004238C
:1028D000626C13436364230041331F700FE06A1C72
:1028E000E7D0FFF793FE801B854201D3002DDFD197
:1028F0002022636C13436364230041331A70220067
:10290000002301204232403413702370F8BDC046CA
:1029100000E800FEF8B504000D0016002027042290
:1029200023689B69134211D1320029002000FFF770
:10293000ADFF002819D123689A693A4217D00421C3
:102940009A690A4204D0228D002A01D00020F8BDE5
:10295000DF615A680E490A405A6022000023413262
:10296000636417704034537023700120EFE7FFF762
:102970004DFE801BA84201D8002DD0D12022636CCF
:1029800013436364230041331A7040340023EBE7A0
:1029900000E800FEF8B504000D00160002272368C9
:1029A0009B693B4201D00020F8BD32002900200085
:1029B000FFF76CFF002815D16B1CF0D0FFF726FE47
:1029C000801BA84201D8002DE9D12022636C13435B
:1029D0006364230041331A702200002342324034E2
:1029E000137023700120DFE7F8B504000D00160016
:1029F000202723689B693B4201D00020F8BD3200AC
:102A000029002000FFF742FF002813D1FFF7FEFD49
:102A1000801BA84201D8002DEBD12022636C134308
:102A20006364230041331A70220000234232403491
:102A3000137023700120E1E7F8B504000E001700C1
:102A40001D002268936933409B1B59424B41BB4296
:102A500001D0002017E06B1CF4D0FFF7D7FD069BD8
:102A6000C01AA84201D8002DEBD12022636C0120AE
:102A700013436364230041331A702200002342325F
:102A8000403413702370F8BD70B504000120002C91
:102A90003FD0250041352B78DAB2002B05D1230039
:102AA000403320001A70FFF733FB242301212B70E1
:102AB0002368E0681A68A6688A431A6061681A4A3F
:102AC0000A401A619968194A11409960012821D178
:102AD00080210902314399605868154901435960C2
:102AE000D96800200A40DA60616922690A43A16955
:102AF00009020A43DA60216AE2690A431A60012284
:102B000019680A431A60202360642B7020634234E2
:102B1000207070BD84210902314399600228DBD105
:102B2000802109015960D7E7FFFFFFF0FF7FFFFF1A
:102B300000800002F0B587B0059303004133049292
:102B400003931B7804000F000220202B14D12300D4
:102B500040331A78012A0FD001261E70FFF756FD68
:102B60008021050000901923320020000902FFF7A0
:102B700063FF002802D0012007B0F0BD212326000A
:102B8000039A42361370113B3370049B6064636296
:102B9000059B60636385628D2D4BFF2A20D9FF2240
:102BA0002285009380235B0439002000FFF75AFE42
:102BB000638D2A0020000C99002B19D1FFF714FF18
:102BC0000028D8D120212368224DD9615A682A4093
:102BD0005A60230040344133197030702070CBE7C5
:102BE000628D92B22285D2B2009380239B04DBE7F0
:102BF000FFF7D0FE0028BED1636A2268197801333E
:102C000091626362638D228D013B9BB26385013AC1
:102C1000638D92B22285002BCAD0002AC8D18021B0
:102C200020000C9B0095FFF707FF0028A3D1638DC0
:102C3000FF2B06D9FF2323858023FF2200905B040E
:102C4000B2E7628D92B22285D2B20090CDE7C04643
:102C50000020008000E800FEF0B587B00593030077
:102C60004133049203931B7804000F000220202BB1
:102C700014D1230040331A78012A0FD001261E7088
:102C8000FFF7C4FC802105000090192332002000CA
:102C90000902FFF7D1FE002802D0012007B0F0BDE5
:102CA00022232600039A42361370123B3370049B92
:102CB00060646362059B60636385628D2D4BFF2AB0
:102CC00020D9FF222285009380235B043900200055
:102CD000FFF7C8FD638D2A0020000C99002B19D145
:102CE000FFF782FE0028D8D120212368224DD96128
:102CF0005A682A405A6023004034413319703070BA
:102D00002070CBE7628D92B22285D2B200938023ED
:102D10009B04DBE7FFF7FEFD0028BED12368626A53
:102D20005B6A1370636A228D01336362638D013ABB
:102D3000013B9BB26385638D92B22285002BC9D083
:102D4000002AC7D1802120000C9B0095FFF774FE5C
:102D50000028A2D1638DFF2B06D9FF232385802372
:102D6000FF2200905B04B1E7628D92B22285D2B25D
:102D70000090CCE70024008000E800FEF0B50400DD
:102D80004134227803000F000220D6B2202A18D145
:102D90001D0040352A78012A13D0242222701B6896
:102DA000233A1968074891431960196801400020C7
:102DB000196019683943196019680A431A60267046
:102DC0002870F0BDFFEFFFFF0200F0B5413214782C
:102DD0000300E5B20220202C17D11C0040342678D5
:102DE000012E12D0223010701B6823381E68074F46
:102DF00086431E601E6809023E403143196019680F
:102E000008431860002015702070F0BDFFF0FFFF30
:102E10000C221D4B70B5DC682240082A31D00C2AE8
:102E200009D0042A25D11868184BC006C0171840CD
:102E3000174BC01870BDA2021648120F805C80228A
:102E40002402D968A40F52020134114209D0124A57
:102E500000230021FDF720FA22000023FDF7FCF9F2
:102E6000E8E71A6810231A4201D00C4AF0E7084A32
:102E7000EEE780205B6800021B045B0F0133984083
:102E8000D8E70548D6E7C0460010024000E548FFF5
:102E90000024F400934A000800127A0000093D0063
:102EA000F0B5050087B0002859D00C23B84C026853
:102EB000E668E7681E4080235B021F40D20742D4C9
:102EC0002B689B0700D58BE02B68DB0629D5002EED
:102ED00000D0E4E023689B0502D5EB69002B3ED0CF
:102EE0006268AC496B6A0A401A43626061682A6A88
:102EF0000902090A12060A43626080225B0B013351
:102F000012029A401300E1680A06A349120F8A5C74
:102F1000D340A24A1360A24B1868FFF733FB002886
:102F200034D12B681B0700D5F0E02B685B0700D578
:102F300012E12B689B0600D599E1AB6A002B00D00B
:102F4000C8E1002022E0082E03D00C2E09D1002F6A
:102F500007D023689B03B3D56B68002BB0D1012049
:102F600014E06A689A4213D1226813432360FFF782
:102F70004DFB01908022236892021342A0D1FFF7FB
:102F800045FB019BC01A6428F4D9032007B0F0BDAB
:102F9000A021C9028A4205D180222168D2020A43B7
:102FA0002260E1E721687F480140216021680B40F1
:102FB0000593059B7C4923680B402360002AD6D1EA
:102FC000FFF724FB0190802223689202134200D174
:102FD00076E7FFF71BFB019BC01A6428F3D9D4E7FF
:102FE0002022EB68134203D02168934311432160F0
:102FF000042E03D00C2E24D1002F22D12268520798
:1030000001D5002BABD061682A69684812020140E3
:103010000A430921626022688A4313432360FFF751
:10302000F7FEE3685C4A1B061B0FD35CD8405B4B82
:1030300018605B4B1868FFF7A5FA002800D143E73A
:10304000A4E7002B19D0092122688A431343236087
:10305000FFF7DCFA070004222368134207D06268F6
:103060002B6952491B020A40134363602CE7FFF7A8
:10307000CDFAC01B0228EED987E7012223689343CB
:103080002360FFF7C3FA070004222368134200D12C
:103090001AE7FFF7BBFAC01B0228F5D975E7EB6901
:1030A000002B20D0802322685B0013432360FFF7AE
:1030B000ADFA070080222368920013420DD06368A6
:1030C000344A13406A6A1343636062682B6A1202CF
:1030D0001B06120A1343636023E7FFF797FAC01B2E
:1030E0000228E7D951E72368314A13402360FFF7EC
:1030F0008DFA0700802223689200134200D110E766
:10310000FFF784FAC01B0228F4D93EE76A6901235D
:10311000002A10D0226D13432365FFF777FA0700CA
:103120000222236D134200D0FFE6FFF76FFAC01BA7
:103130000228F5D929E7226D9A432265FFF766FA3E
:1031400007000222236D134200D1EEE6FFF75EFA7C
:10315000C01B0228F5D918E780230021A26B5B056C
:1031600001911A4204D1A26B1343A363012301937B
:103170008022104F52003B6813421DD08022AB6862
:10318000520093422ED1226D134323654FE0C04677
:1031900000100240FF1FFFFF7B4A000804000020D0
:1031A0000C000020FFFFFEFFFFFFFBFFFFE0FFFF23
:1031B000FFFEFFFF0070004080223B685200134377
:1031C0003B60FFF723FA80235B00029003933B6888
:1031D000039A1342D2D1FFF719FA029BC01A64284E
:1031E000F5D9D2E6002B16D1236D6B4A1340236527
:1031F000236D6A4A13402365FFF708FA070080220F
:10320000236D920013421AD0FFF700FA644BC01BE3
:103210009842F4D9B9E6A021C9008B4218D1802385
:10322000216DDB000B432365236D1A432265FFF7F5
:10323000EDF907008022236D9200134210D0019B0C
:10324000012B00D075E6A36B564A1340A36370E6CA
:10325000236D514A13402365236D504A134094E770
:10326000FFF7D4F94E4BC01B9842E3D98DE6A9690C
:1032700001234D4A002918D0A1681943A160616B50
:103280000B4363638023116A9B010B431362FFF7B7
:10329000BDF907000222A368134200D04DE6FFF7F4
:1032A000B5F9C01B0228F5D96FE6A1689943A16062
:1032B000136A3E490B401362FFF7A8F90700022288
:1032C000A368134200D138E6FFF7A0F9C01B02281B
:1032D000F5D95AE60C2E43D0354A022B2ED123685D
:1032E000802713402360FFF791F90600BF0423688D
:1032F0003B421DD1296BEB6AE2680B432D498026C6
:103300000A4013436A6BB6041343E36080232268C8
:103310005B0413432360FFF779F905002368334208
:1033200000D00EE6FFF772F9401B0228F6D92CE612
:10333000FFF76CF9801B0228D9D926E6236880267E
:1033400013402360FFF762F90500B6042368334297
:1033500000D1F6E5FFF75AF9401B0228F6D914E62A
:103360001800012B00D111E68022E368E96A5202BD
:103370001A408A4200D0F2E5F022296B92031A40EB
:103380008A4200D0EBE5C022120413406A6B9342DC
:1033900000D1D6E5E3E5C046FFFEFFFFFFFBFFFFE0
:1033A00088130000FFFFFFEF00000140FFDFFFFF79
:1033B000FFFFFFFEFFFF02FFF7B5041E019101D1E1
:1033C0000120FEBD01265B4D019A2B6833409342DC
:1033D00031D32268930743D4D30749D401262B68FD
:1033E000019A3340934209D92B68B3432B60FFF70E
:1033F0000DF907002B68334200D08CE022684E4D57
:10340000530700D58FE0130706D5EA6823694B49B7
:10341000DB000A401343EB60FFF7FAFCEB68484A15
:103420001B061B0FD35CD840464B1860464B1868F0
:10343000FFF7A8F8C5E72B68019AB34313432B6045
:10344000FFF7E4F807002B68019A33409342C0D09D
:10345000FFF7DCF83D4BC01B9842F4D90320B0E7DE
:10346000F0203549CB688343A0680343CB60B3E7C2
:10347000314E62683368022A18D19B03A0D503211C
:10348000F3688B431343F360FFF7C0F863680700EA
:10349000022B18D10C22F3681340082B9ED0FFF7A3
:1034A000B5F82A4BC01B9842F4D9D7E7032A02D1BA
:1034B0009B01E4D484E7012A02D15B07DFD47FE7D4
:1034C0009B05DCD47CE7032B0BD10C22F368134063
:1034D000934283D0FFF79AF81C4BC01B9842F4D953
:1034E000BCE7012B11D00C22F368134200D175E721
:1034F000FFF78CF8154BC01B9842F4D9AEE7FFF7E5
:1035000085F8124BC01B9842A8D80C22F3681340D0
:10351000042BF4D162E7FFF779F80C4BC01B9842FB
:1035200000D867E79AE7EB6809490B40E1680B436D
:10353000EB6068E70020024000100240FFC7FFFF79
:103540007B4A0008040000200C00002088130000C3
:10355000FFF8FFFF044B054ADB685B055B0FD35C9C
:10356000034A1068D8407047001002408B4A000898
:1035700004000020044B054ADB689B045B0FD35C0E
:10358000034A1068D8407047001002408B4A000878
:10359000040000208223F7B502681B0105001A42CF
:1035A00048D080230021654C5B05A26B00911A4234
:1035B00004D1A26B1343A363012300938027604EC1
:1035C0007F0033683B4277D06B68C0211E00C02269
:1035D0002068890308400E409202864203D1A86801
:1035E0000140B14207D019001140914203D1216836
:1035F0000120890371D4216D08001040114200D0D0
:103600006CE06968C0230A009B021A409A4207D105
:1036100023684C480340C020800301400B432360D3
:10362000236D1A43009B2265012B03D1A36B464AED
:103630001340A3632B68DA0706D503203F49CA6C01
:103640008243E8680243CA649A0706D50C203B49C6
:10365000CA6C824328690243CA645A0706D53749AF
:103660003A48CA6C024068690243CA641A0706D520
:1036700032493748CA6C0240A8690243CA64DA0575
:1036800006D52E493348CA6C0240E8690243CA6431
:103690005A0606D529493048CA6C0240686A024376
:1036A000CA6400201B0618D5244A2C49D36C0B4051
:1036B000296A0B43D36410E033683B433360FEF761
:1036C000A5FF019033683B4200D07DE7FEF79EFFE7
:1036D000019BC01A6428F5D90320FEBD2968134058
:1036E000984201D08B0609D4C023AA689B021340DC
:1036F000834200D185E70B0500D482E78022216D4B
:10370000206D120302432265226D124B14480B40B8
:10371000024022652365CB0500D472E7FEF776FFF1
:1037200080270600BF00236D3B4200D069E7FEF70B
:103730006DFF0C4B801B9842F5D9CDE7001002407D
:1037400000700040FFFFCFFFFFFFFFEFFFF3FFFF21
:10375000FFCFFFFFFFFFFCFFFFFFFFFBFFFFF3FFBC
:10376000FFFFF7FF8813000080220368D205904214
:1037700008D0154A904205D0144A904202D0144A0B
:10378000904214D1702293434A6813438022D20599
:10379000904208D00C4A904205D00C4A904202D088
:1037A0000B4A904203D10B4A1340CA68134380224C
:1037B00093430A69134303608B68C3620B68836297
:1037C000012343617047C0460004004000080140E7
:1037D00000140140FFFCFFFF70B504000120002C25
:1037E0001DD0250039352B78DAB2002B05D1230006
:1037F000383320001A70FEF723FE02232B70206856
:10380000211DFFF7B1FF2200012300203E3213707B
:103810003D34043A13705370937023702B7070BD55
:103820000200030001203932117881421CD10221AB
:1038300011701B68DA680243DA608022D205934275
:1038400008D00C4A934205D00B4A934202D00B4A4F
:1038500093420AD107219A6800200A40062A03D021
:10386000012219680A431A6070471A6810431860E9
:103870000020F9E700040040000801400014014066
:103880000121036810B5DA688A43DA601C6A054AC8
:10389000144202D11A688A431A6001233930037036
:1038A000002010BD1111000070477047704770472D
:1038B0000222036810B51969040011420DD0D968BD
:1038C00011420AD0053A1A61043202769B699B07BD
:1038D0005ED0FFF7EAFF00232376042223681969EC
:1038E000114210D0D96811420DD0093A1A6107323D
:1038F00022769A69C0239B0020001A424ED0FFF71F
:10390000D4FF0023237608222368196911420ED0C0
:10391000D96811420BD0113A1A610D322276DB6957
:1039200020009B0740D0FFF7C0FF00232376102222
:1039300023681969114210D0D96811420DD0213A7B
:103940001A6119322276DA69C0239B0020001A42DC
:1039500030D0FFF7AAFF00232376012223681969DC
:10396000114207D0D968114204D0033A20001A61ED
:10397000FEF7BCFC402223681969114207D0D968C0
:10398000114204D0813A20001A61FFF790FF10BD68
:10399000FFF78AFF2000FFF789FF9CE7FFF784FF0E
:1039A0002000FFF783FFACE7FFF77EFF2000FFF763
:1039B0007DFFBAE7FFF778FF2000FFF777FFCAE740
:1039C00070B5040002223834257803001000012D60
:1039D00020D01D00702639352A701B6858689A68F7
:1039E000B0430E68304358608020C005834208D041
:1039F0000948834205D00948834202D008488342DF
:103A000004D18020496882430A439A600123002040
:103A10002B70207070BDC0460004004000080140BB
:103A200000140140F8B504002569A1680268294323
:103A30006569C36929431068784D194328400143DB
:103A4000116051687648774D0140E068014351604C
:103A5000A069AA4201D0216A08439168724E3140A0
:103A60000143916071498A420FD10321704AD26C9F
:103A70000A40013A6F49022A0FD98022120293426A
:103A800000D0A2E0FFF776FDC4E06B498A4217D16F
:103A90000C21674AD26C0A406849885C8022120275
:103AA000934200D083E0082824D8FCF73FFBB10004
:103AB000EBFF5C0023007D00230023002300670050
:103AC0005F498A4200D19FE05E498A4200D19BE073
:103AD000AA420FD1C0218020554A0901D36C0001B0
:103AE0000B40834216D007D8002B0AD08022D20088
:103AF000934235D0012009E08B42FBD180200002A7
:103B000012E0FFF727FD00280ED100200023636696
:103B1000A366F8BD102310681840434258414A4B31
:103B200040421840494BC018032263685A438242FE
:103B3000E0D81A038242DDD30027020E01025E089C
:103B400089197A41080011001A003B00FCF784FB38
:103B50003F4BC2183F4B9A42CCD82368D860D4E779
:103B6000FFF756F9CFE7324B384A18681023184050
:103B700043425841344B404203409B18580063680D
:103B800061685B08C018FCF7DBFA334982B2103A6F
:103B900003048A42AED80F221B03904380B22268EE
:103BA0005B0F1843D060B0E7FFF732F932E0082826
:103BB000A0D8FCF7B1FA050A0D9F239F9F9F26000E
:103BC000FFF7C8FC0028A0D00DE0FFF7D3FCF9E711
:103BD000174B186810231840434258411A4B404273
:103BE00018401A4BC018636861685B081818FCF726
:103BF000A7FA80B20200184B103AACE7FFF708F9B9
:103C0000E0E780200002EEE7802212029342D7D143
:103C1000FFF7A0FC031E00D177E7AFE7F369FFEFE2
:103C2000FFCFFFFF00480040FFF4FFFF00380140D6
:103C3000001002409C4A0008004400409F4A0008CF
:103C4000004C004000500040001BB70000093D0040
:103C500000FDFFFFFFFC0F00EFFF0000436A30B5DF
:103C6000DA0706D50168284C4A682240846A224354
:103C70004A609A0706D50168244C4A682240C46A03
:103C800022434A605A0706D50168214C4A682240FF
:103C9000046B22434A601A0706D501681D4C4A6826
:103CA0002240446B22434A60DA0606D501681A4C6A
:103CB0008A682240846B22438A609A0606D501688E
:103CC000164C8A682240C46B22438A605A0610D57B
:103CD0000168134D4A68046C2A4022434A608022DE
:103CE0005203944205D14A680E4C2240446C224350
:103CF0004A601B0606D502680B4953680B40816C6D
:103D00000B43536030BDC046FFFFFDFFFFFFFEFFCA
:103D1000FFFFFBFFFF7FFFFFFFEFFFFFFFDFFFFF67
:103D2000FFFFEFFFFFFF9FFFFFFFF7FFF7B58027C4
:103D300004000D00160001933F012268D3692B4057
:103D40005B1B59424B41B34201D0002028E0089B45
:103D50000133F3D0FEF75AFC019BC01A089B98422E
:103D600001D8002B1DD1EFF31080012282F31088BF
:103D700021681E4D0B682B400B6080F31088EFF319
:103D8000108082F3108821688B6893438B6080F3E6
:103D900010882023A367E367002303207434237073
:103DA000FEBD042123681A680A42C6D0DA693A4285
:103DB000C3D01F62EFF31080012282F310882168C4
:103DC0000A4D0B682B400B6080F31088EFF31080D6
:103DD00082F3108821688B6893438B6080F310888E
:103DE0002023221DA367E367D367D5E75FFEFFFFAC
:103DF000F0B587B00593836F04000D001600022014
:103E0000202B51D1013800294ED0002A4CD08023DC
:103E1000A2685B019A4204D12369002B01D10142BF
:103E200042D12300743303931B780220012B3BD033
:103E30000123039A13700022231DDA672123A3674D
:103E4000FEF7E4FB230050331E8002331E800493F0
:103E50008023A268070000265B019A4204D12369EF
:103E6000B34201D12E001D000023039A13702300DA
:103E700052331B889AB2002B0BD1059B4021009333
:103E800020003B00FFF752FF00280CD12023A3673E
:103E90000AE0059B0022009380213B002000FFF7F1
:103EA00045FF002802D0032007B0F0BD2268002D96
:103EB0000BD133880236DB05DB0D9362049B049A39
:103EC0001B88013B9BB21380D1E72B7801359362AD
:103ED000F4E70000F0B587B00593C36F04000F004E
:103EE00015000220202B44D10138002941D0002A9E
:103EF0003FD08023A2685B019A4204D12369002B42
:103F000001D1014235D12600743633780220012BCD
:103F10002FD0012300223370231DDA672223E367A9
:103F20002266FEF773FB23008021A26858331D80B0
:103F30005D800490490104338A421ED12169002921
:103F400019D1254919801B880025039380235B0123
:103F50009A4204D12369AB4201D13D001F000023E6
:103F6000337026005A36338898B2002B17D120338D
:103F7000E36707B0F0BDFF21E4E7002A04D121691F
:103F80000029F8D07F21DDE7802149058A4204D14C
:103F900021690029F6D03F21D4E70021D2E7059B13
:103FA0000022009320212000049BFFF7BFFE002881
:103FB0000FD12368039A5B6A1340002F06D12B8030
:103FC00002353388013B9BB23380CAE73B7001372F
:103FD000F7E70320CDE7C046FF01000073B50026D8
:103FE0000400031DDE67FEF711FB236805001B6854
:103FF0001B0716D423681B685B070AD580210F4B6B
:104000000022009320002B00C903FFF78FFE002839
:1040100012D120230020A367E36720667434207048
:104020000BE08021054B3200009389030300200040
:10403000FFF77CFE0028DDD0032076BDFFFFFF01E7
:1040400010B5041E01D1012010BD836F002B04D1D7
:10405000020074321370FEF73BFA24230121226818
:10406000A367136820008B431360FFF7DBFC012874
:10407000E9D0636A002B02D02000FFF7EFFD236830
:1040800007495A6820000A402A215A609A688A43E0
:104090009A60012219680A431A60FFF79FFFD3E76D
:1040A000FFB7FFFF014B18687047C04610000020A3
:1040B00070B500260C4D0D4C641BA410A64209D10E
:1040C000002600F04FFC0A4D0A4C641BA410A642C7
:1040D00005D170BDB300EB5898470136EEE7B30049
:1040E000EB5898470136F2E7E84A0008E84A00082A
:1040F000E84A0008EC4A000803008218934200D105
:10410000704719700133F9E70EB400B50B499CB044
:104110001DAB02900690079104910948094904CB10
:104120000591006802A9019300F078F80023029A33
:1041300013701CB008BC03B01847C046FFFFFF7FD8
:10414000100000200802FFFF03000A7801311A70F6
:104150000133002AF9D17047F0B58E6885B00700A9
:104160000C00039201939E423CD890238A89DB0085
:104170001A4234D00325096923685B1A02936369E4
:1041800002985D43EB0F5D19019B6D1001331B1805
:10419000AB4200D91D00530532D52900380000F08C
:1041A00031FB061E09D10C233B6040230120A2896C
:1041B00040421343A38105B0F0BD029A216900F08B
:1041C000BAFAA389144A1A4080231343A381029B9D
:1041D0002661F61826606561019EED1AA560019BB7
:1041E0009E4200D9019E32000399206800F0ACFA8B
:1041F000A36800209B1BA36023689E192660DAE752
:104200002A00380000F05CFB061EE0D1380021696E
:1042100000F0AEFAC7E7C0467FFBFFFFF0B5A1B0E4
:1042200003901D008B890F0016001B0611D50B692A
:10423000002B0ED1402100F0E5FA386038610028EB
:1042400005D10C23039A0138136021B0F0BD40233F
:104250007B61002308AC6361203363761033A3765F
:10426000079535002B78002B01D0252B47D1AB1BB0
:104270000593B5420CD0320039000398FFF76CFF6C
:10428000431C00D1AEE06269059B944663446361C0
:104290002B78002B00D1A5E001220023524262605E
:1042A00004A9543252186E1C2360E360A36013709B
:1042B000A36505223178544800F032FA751C0028B5
:1042C0001FD12268D30604D5532304A95B182021EB
:1042D0001970130704D5532304A95B182B211970F7
:1042E00033782A2B16D0350000210A20E3682A787B
:1042F0006E1C303A092A4ED9002911D117E0013538
:10430000B0E7414B2268C01A0123834013432E00BB
:104310002360CEE7079B191D1B680791002B01DB6B
:104320000B9304E05B42E3600223134323602B788A
:104330002E2B0AD16B782A2B35D1079B02351A1DFB
:104340001B680792002B2BDB0993304E03223000B1
:10435000297800F0E5F9002806D04023801B83402F
:1043600022680135134323602978062228486E1CF1
:10437000217600F0D5F900283CD0264B002B25D122
:104380000722079B07339343083307936369049A13
:104390009B18636165E74343350001219B18A6E73D
:1043A00001235B42D0E700230A201A000135636035
:1043B00029786E1C3039092903D9002BC5D0099200
:1043C000C3E74243350001235218F1E707AB0093DE
:1043D0003A002100104B039800E000BF0490049BBA
:1043E0000133D3D1BB890D985B0600D42DE70120A2
:1043F00040422AE707AB00933A002100064B03989E
:1044000000F07CF8EAE7C046AC4A0008B24A00086F
:10441000B64A00080000000059410008F7B5150031
:1044200001938A680B690C000090934200DA130034
:1044300022002B6043321278002A01D001332B6016
:1044400023689B0602D52B6802332B602268062363
:1044500017001F401A4227D0230043331B785A1EEF
:1044600093412268920630D4220001990098089E58
:104470004332B047431C25D0062320682A68E168F0
:1044800000250340042B03D18D1AEB43DB171D409D
:10449000A3682269934201DD9B1AED180027BD42F3
:1044A00020D1002010E00137E3682A689B1ABB4244
:1044B000D2DD2200012301990098089E1932B047ED
:1044C000431CF0D101204042FEBD3020E1184331B1
:1044D000087021005A1C45310978A2184332023372
:1044E0001170C1E72200012301990098089E1A3239
:1044F000B047431CE6D00137D1E70000F0B58BB0E0
:1045000006920A0043320793059004920A7E0C003B
:10451000109B782A06D8622A08D8002A00D1C0E069
:10452000582A52D026004236327022E010006338FA
:104530001528F7D8FBF7FAFD16001F00F6FFF6FF67
:10454000F6FFF6FF1F00F6FFF6FFF6FFF6FFA800E6
:1045500036009A00F6FFF6FFB900F6FF3600F6FFC8
:10456000F6FF9E0026001A684236111D1960136876
:1045700033700123A7E0086819680A1D05060BD5EA
:104580000D681A60002D03DA2D23049A6D42137012
:10459000614B0A27039332E00D681A604106F1D59A
:1045A0002DB2EFE70D681968081D18602E0601D5B9
:1045B0000D6803E06D06FBD50D68ADB2564B0A27BA
:1045C00003936F2A17D1082715E045310A70524A24
:1045D00003921A68216820CA1A60080650D5CB07D2
:1045E00002D52023194321601027002D03D1202359
:1045F00022689A4322602300002243331A706368C2
:10460000A360002B03DB0422216891432160002D6D
:1046100002D1049E002B0CD0049E28003900FBF729
:1046200015FE039B013E5B5C33702B0005009F422F
:10463000F3D9082F09D12368DB0706D563682269FF
:10464000934202DC3023013E3370049B9B1B2361A9
:10465000079B210000930598069B09AAFFF7DEFE41
:10466000431C35D1012040420BB0F0BD2022096827
:104670000A4322602200782145321170274AA7E7B9
:104680004806ACD5ADB2AAE71A680D68101D496995
:10469000186013682E0601D5196002E06D06FBD57F
:1046A00019800023049E2361D2E71A68111D196046
:1046B000166800213000626800F032F8002801D04E
:1046C000801B6060636823610023049A1370BFE756
:1046D0002369320006990598079DA847431CC1D05D
:1046E00023689B0715D4099BE0689842BCDA180040
:1046F000BAE72200012306990598079E1932B047B0
:10470000431CAFD00135E368099A9B1AAB42F0DC39
:10471000E9E70025F7E7C046BD4A0008CE4A000891
:10472000C9B28218904201D10020704703788B42B1
:10473000FBD00130F6E7002310B59A4200D110BD3E
:10474000CC5CC4540133F8E710B5884202D98B1809
:10475000984203D3002307E08B5C8354013AFBD2D9
:1047600010BDCC5CC45401339A42FAD1F8E7000082
:1047700070B50500002910D00C1F2368002B00DA4B
:10478000E418280000F0D4F81D4A1368002B05D166
:1047900063601460280000F0D3F870BDA34208D90C
:1047A000216860188342F3D118685B684118216062
:1047B000EEE71A005B68002B01D0A342F9D911681B
:1047C0005018A0420BD1206809185018116083427C
:1047D000E0D118685B68411811605360DAE7A042C5
:1047E00002D90C232B60D5E721686018834203D1DE
:1047F00018685B684118216063605460CAE7C0466E
:10480000D8000020F8B50323CD1C9D4308350600D1
:104810000C2D1FD20C25A9421ED8300000F088F8BC
:1048200025490A681400002C1AD1244F3B68002B3C
:1048300004D12100300000F069F838602900300010
:1048400000F064F8431C2BD10C233000336000F0DF
:1048500077F803E0002DDEDA0C2333600020F8BD8A
:1048600023685B1B19D40B2B03D92360E418256044
:1048700003E06368A2420ED10B60300000F060F8E4
:10488000200007220B30231D9043C21A9842E6D025
:104890001B1AA350E3E75360EFE722006468C2E706
:1048A0000323C41C9C43A042E1D0211A300000F035
:1048B0002DF8431CDBD1C7E7D8000020DC00002026
:1048C000F8B507000D001600002905D11100FFF70B
:1048D00099FF04002000F8BD002A03D1FFF748FF2C
:1048E0003400F7E700F034F82C00B042F2D2310087
:1048F0003800FFF787FF041EECD029003200FFF7D5
:104900001AFF29003800FFF733FFE3E7002370B5F3
:10491000064D040008002B60FDF720FD431C03D169
:104920002B68002B00D0236070BDC04644020020DD
:1049300010B5024800F014F810BDC0464C0200202B
:1049400010B5024800F00DF810BDC0464C02002022
:104950000B1F1B68181F002B01DA0B58C01870477B
:1049600070477047F8B5C046F8BC08BC9E46704713
:0C497000F8B5C046F8BC08BC9E46704775
:10497C00240700088C0500086A0500087E0600085C
:10498C006A050008C20600086A0500087E060008D1
:10499C008C0500088C050008C20600087E0600087D
:1049AC00300600083006000830060008D006000863
:1049BC00200C00084E0B00084E0B00084A0B000898
:1049CC00540B0008540B0008400E00084A0B00085A
:1049DC00540B0008400E0008540B00084A0B00084A
:1049EC00DE0D0008DE0D0008DE0D0008AA0E000822
:1049FC004E61706F6E206261746572696A65206ABF
:104A0C00653A20252E326620560D0A002D2D506554
:104A1C0072696F6469636E6F20736C616E6A652076
:104A2C00626174742D2D0D0A002D2D5072656B6909
:104A3C006420706572696F6469636B6F6720736C57
:104A4C00616E6A612D2D0D0A002D2D506572696FF6
:104A5C006469636E6F20736C616E6A652076656342
:104A6C00207072656B696E75746F2D2D0D0A0000C8
:104A7C000000000000000001020304060708090002
:104A8C0000000001020304030406080C1018203077
:104A9C00040208001010100410101002101010085E
:104AAC00232D302B2000686C4C006566674546470B
:104ABC00003031323334353637383941424344458E
:104ACC0046003031323334353637383961626364FD
:044ADC00656600000B
:084AE00044B8FF7F0100000053
:044AE800E9000008D9
:044AEC00C1000008FD
:104AF000030200000000200001000000040000008C
:104B00001400002000000000000000000000000071
:104B10000000000000000000000000000000000095
:104B20000000000000000000000000000000000085
:104B30000000000000000000000000000000000075
:104B40000000000000000000000000000000000065
:104B50000000000000000000000000000000000055
:044B60000000000051
:040000050800253199
:00000001FF
